{
  "contractName": "SupplyChain",
  "abi": [
    {
      "inputs": [
        {
          "internalType": "uint256",
          "name": "",
          "type": "uint256"
        }
      ],
      "name": "ProductAddresses",
      "outputs": [
        {
          "internalType": "address",
          "name": "",
          "type": "address"
        }
      ],
      "stateMutability": "view",
      "type": "function",
      "constant": true
    },
    {
      "inputs": [
        {
          "internalType": "string",
          "name": "_ProductName",
          "type": "string"
        },
        {
          "internalType": "string",
          "name": "_ProductType",
          "type": "string"
        },
        {
          "internalType": "uint256",
          "name": "_ProductPrice",
          "type": "uint256"
        }
      ],
      "name": "createProduct",
      "outputs": [],
      "stateMutability": "nonpayable",
      "type": "function"
    },
    {
      "inputs": [],
      "name": "getAllProductAddr",
      "outputs": [
        {
          "internalType": "address[]",
          "name": "",
          "type": "address[]"
        }
      ],
      "stateMutability": "view",
      "type": "function",
      "constant": true
    },
    {
      "inputs": [
        {
          "internalType": "address",
          "name": "id",
          "type": "address"
        }
      ],
      "name": "getProduct",
      "outputs": [
        {
          "internalType": "address",
          "name": "adrr",
          "type": "address"
        },
        {
          "internalType": "string",
          "name": "_ProductName",
          "type": "string"
        },
        {
          "internalType": "string",
          "name": "_ProductType",
          "type": "string"
        },
        {
          "internalType": "uint256",
          "name": "_ProductPrice",
          "type": "uint256"
        },
        {
          "internalType": "enum ProductState",
          "name": "_state",
          "type": "uint8"
        }
      ],
      "stateMutability": "view",
      "type": "function",
      "constant": true
    }
  ],
  "bytecode": "0x608060405234801561001057600080fd5b50611059806100206000396000f3fe608060405234801561001057600080fd5b506004361061004c5760003560e01c8063328b0efb146100515780638319f76014610081578063a14222091461009f578063d9aba9ce146100bb575b600080fd5b61006b600480360381019061006691906106f6565b6100ef565b6040516100789190610764565b60405180910390f35b61008961012e565b604051610096919061083d565b60405180910390f35b6100b960048036038101906100b491906109a5565b6101bc565b005b6100d560048036038101906100d09190610a5c565b61046b565b6040516100e6959493929190610b8e565b60405180910390f35b600181815481106100ff57600080fd5b906000526020600020016000915054906101000a900473ffffffffffffffffffffffffffffffffffffffff1681565b606060018054806020026020016040519081016040528092919081815260200182805480156101b257602002820191906000526020600020905b8160009054906101000a900473ffffffffffffffffffffffffffffffffffffffff1673ffffffffffffffffffffffffffffffffffffffff1681526020019060010190808311610168575b5050505050905090565b6000600233426040516020016101d3929190610c58565b6040516020818303038152906040526040516101ef9190610ccb565b602060405180830381855afa15801561020c573d6000803e3d6000fd5b5050506040513d601f19601f8201168201806040525081019061022f9190610d18565b60601c9050806000808373ffffffffffffffffffffffffffffffffffffffff1673ffffffffffffffffffffffffffffffffffffffff16815260200190815260200160002060000160006101000a81548173ffffffffffffffffffffffffffffffffffffffff021916908373ffffffffffffffffffffffffffffffffffffffff160217905550836000808373ffffffffffffffffffffffffffffffffffffffff1673ffffffffffffffffffffffffffffffffffffffff16815260200190815260200160002060010190816103029190610f51565b50826000808373ffffffffffffffffffffffffffffffffffffffff1673ffffffffffffffffffffffffffffffffffffffff16815260200190815260200160002060020190816103519190610f51565b50816000808373ffffffffffffffffffffffffffffffffffffffff1673ffffffffffffffffffffffffffffffffffffffff1681526020019081526020016000206003018190555060008060008373ffffffffffffffffffffffffffffffffffffffff1673ffffffffffffffffffffffffffffffffffffffff16815260200190815260200160002060040160006101000a81548160ff021916908360048111156103fd576103fc610b17565b5b02179055506001819080600181540180825580915050600190039060005260206000200160009091909190916101000a81548173ffffffffffffffffffffffffffffffffffffffff021916908373ffffffffffffffffffffffffffffffffffffffff16021790555050505050565b600060608060008060008060008873ffffffffffffffffffffffffffffffffffffffff1673ffffffffffffffffffffffffffffffffffffffff1681526020019081526020016000206040518060a00160405290816000820160009054906101000a900473ffffffffffffffffffffffffffffffffffffffff1673ffffffffffffffffffffffffffffffffffffffff1673ffffffffffffffffffffffffffffffffffffffff16815260200160018201805461052490610d74565b80601f016020809104026020016040519081016040528092919081815260200182805461055090610d74565b801561059d5780601f106105725761010080835404028352916020019161059d565b820191906000526020600020905b81548152906001019060200180831161058057829003601f168201915b505050505081526020016002820180546105b690610d74565b80601f01602080910402602001604051908101604052809291908181526020018280546105e290610d74565b801561062f5780601f106106045761010080835404028352916020019161062f565b820191906000526020600020905b81548152906001019060200180831161061257829003601f168201915b50505050508152602001600382015481526020016004820160009054906101000a900460ff16600481111561066757610666610b17565b5b600481111561067957610678610b17565b5b81525050905080600001518160200151826040015183606001518460800151955095509550955095505091939590929450565b6000604051905090565b600080fd5b600080fd5b6000819050919050565b6106d3816106c0565b81146106de57600080fd5b50565b6000813590506106f0816106ca565b92915050565b60006020828403121561070c5761070b6106b6565b5b600061071a848285016106e1565b91505092915050565b600073ffffffffffffffffffffffffffffffffffffffff82169050919050565b600061074e82610723565b9050919050565b61075e81610743565b82525050565b60006020820190506107796000830184610755565b92915050565b600081519050919050565b600082825260208201905092915050565b6000819050602082019050919050565b6107b481610743565b82525050565b60006107c683836107ab565b60208301905092915050565b6000602082019050919050565b60006107ea8261077f565b6107f4818561078a565b93506107ff8361079b565b8060005b8381101561083057815161081788826107ba565b9750610822836107d2565b925050600181019050610803565b5085935050505092915050565b6000602082019050818103600083015261085781846107df565b905092915050565b600080fd5b600080fd5b6000601f19601f8301169050919050565b7f4e487b7100000000000000000000000000000000000000000000000000000000600052604160045260246000fd5b6108b282610869565b810181811067ffffffffffffffff821117156108d1576108d061087a565b5b80604052505050565b60006108e46106ac565b90506108f082826108a9565b919050565b600067ffffffffffffffff8211156109105761090f61087a565b5b61091982610869565b9050602081019050919050565b82818337600083830152505050565b6000610948610943846108f5565b6108da565b90508281526020810184848401111561096457610963610864565b5b61096f848285610926565b509392505050565b600082601f83011261098c5761098b61085f565b5b813561099c848260208601610935565b91505092915050565b6000806000606084860312156109be576109bd6106b6565b5b600084013567ffffffffffffffff8111156109dc576109db6106bb565b5b6109e886828701610977565b935050602084013567ffffffffffffffff811115610a0957610a086106bb565b5b610a1586828701610977565b9250506040610a26868287016106e1565b9150509250925092565b610a3981610743565b8114610a4457600080fd5b50565b600081359050610a5681610a30565b92915050565b600060208284031215610a7257610a716106b6565b5b6000610a8084828501610a47565b91505092915050565b600081519050919050565b600082825260208201905092915050565b60005b83811015610ac3578082015181840152602081019050610aa8565b60008484015250505050565b6000610ada82610a89565b610ae48185610a94565b9350610af4818560208601610aa5565b610afd81610869565b840191505092915050565b610b11816106c0565b82525050565b7f4e487b7100000000000000000000000000000000000000000000000000000000600052602160045260246000fd5b60058110610b5757610b56610b17565b5b50565b6000819050610b6882610b46565b919050565b6000610b7882610b5a565b9050919050565b610b8881610b6d565b82525050565b600060a082019050610ba36000830188610755565b8181036020830152610bb58187610acf565b90508181036040830152610bc98186610acf565b9050610bd86060830185610b08565b610be56080830184610b7f565b9695505050505050565b60008160601b9050919050565b6000610c0782610bef565b9050919050565b6000610c1982610bfc565b9050919050565b610c31610c2c82610743565b610c0e565b82525050565b6000819050919050565b610c52610c4d826106c0565b610c37565b82525050565b6000610c648285610c20565b601482019150610c748284610c41565b6020820191508190509392505050565b600081519050919050565b600081905092915050565b6000610ca582610c84565b610caf8185610c8f565b9350610cbf818560208601610aa5565b80840191505092915050565b6000610cd78284610c9a565b915081905092915050565b6000819050919050565b610cf581610ce2565b8114610d0057600080fd5b50565b600081519050610d1281610cec565b92915050565b600060208284031215610d2e57610d2d6106b6565b5b6000610d3c84828501610d03565b91505092915050565b7f4e487b7100000000000000000000000000000000000000000000000000000000600052602260045260246000fd5b60006002820490506001821680610d8c57607f821691505b602082108103610d9f57610d9e610d45565b5b50919050565b60008190508160005260206000209050919050565b60006020601f8301049050919050565b600082821b905092915050565b600060088302610e077fffffffffffffffffffffffffffffffffffffffffffffffffffffffffffffffff82610dca565b610e118683610dca565b95508019841693508086168417925050509392505050565b6000819050919050565b6000610e4e610e49610e44846106c0565b610e29565b6106c0565b9050919050565b6000819050919050565b610e6883610e33565b610e7c610e7482610e55565b848454610dd7565b825550505050565b600090565b610e91610e84565b610e9c818484610e5f565b505050565b5b81811015610ec057610eb5600082610e89565b600181019050610ea2565b5050565b601f821115610f0557610ed681610da5565b610edf84610dba565b81016020851015610eee578190505b610f02610efa85610dba565b830182610ea1565b50505b505050565b600082821c905092915050565b6000610f2860001984600802610f0a565b1980831691505092915050565b6000610f418383610f17565b9150826002028217905092915050565b610f5a82610a89565b67ffffffffffffffff811115610f7357610f7261087a565b5b610f7d8254610d74565b610f88828285610ec4565b600060209050601f831160018114610fbb5760008415610fa9578287015190505b610fb38582610f35565b86555061101b565b601f198416610fc986610da5565b60005b82811015610ff157848901518255600182019150602085019450602081019050610fcc565b8683101561100e578489015161100a601f891682610f17565b8355505b6001600288020188555050505b50505050505056fea2646970667358221220ad6c9bf6cab592525412483fac7840b16e3af7b5df8803bc809e18e48556dc3264736f6c63430008110033",
  "immutableReferences": {},
  "source": "// SPDX-License-Identifier: GPL-3.0\r\n\r\npragma solidity >=0.5.0 <0.9.0;\r\n\r\nenum ProductState{\r\n    SETTING,\r\n    PROCESSING,\r\n    FINISH,\r\n    IN_TRANSIT,\r\n    ARRIVED\r\n}\r\n\r\ncontract SupplyChain{\r\n    struct Product{\r\n        address ProductID;\r\n        string ProductName;\r\n        string ProductType;\r\n        uint ProductPrice;\r\n        ProductState state;\r\n        \r\n}\r\nmapping (address => Product) myproduct;\r\naddress[] public ProductAddresses;\r\n\r\nfunction createProduct(string memory _ProductName,string memory _ProductType, uint _ProductPrice) public {\r\n    address addr = address(bytes20(sha256(abi.encodePacked(msg.sender,block.timestamp))));\r\n    myproduct[addr].ProductID = addr;\r\n    myproduct[addr].ProductName = _ProductName;\r\n    myproduct[addr].ProductType = _ProductType;\r\n    myproduct[addr].ProductPrice = _ProductPrice;\r\n    myproduct[addr].state = ProductState.SETTING;\r\n\r\n    ProductAddresses.push(addr);\r\n}\r\n\r\nfunction getAllProductAddr() external view returns (address[] memory) {\r\n    return ProductAddresses;\r\n}\r\n\r\n\r\nfunction getProduct(address id) public view returns (address adrr,string memory _ProductName,string memory _ProductType, uint _ProductPrice,ProductState _state)\r\n    {\r\n       \r\n        Product memory p = myproduct[id];\r\n        \r\n        \r\n        return (p.ProductID, p.ProductName, p.ProductType, p.ProductPrice,p.state);\r\n    }\r\n\r\n}",
  "sourcePath": "C:\\Users\\lulu\\supplychain\\blockchain_project\\contracts\\supplychain.sol",
  "compiler": {
    "name": "solc",
    "version": "0.8.17+commit.8df45f5f.Emscripten.clang"
  },
  "schemaVersion": "3.4.14",
  "updatedAt": "2023-08-01T06:16:44.854Z",
  "networkType": "ethereum",
  "devdoc": {
    "kind": "dev",
    "methods": {},
    "version": 1
  },
  "userdoc": {
    "kind": "user",
    "methods": {},
    "version": 1
  }
}