{
  "contractName": "SupplyChain",
  "abi": [
    {
      "inputs": [],
      "stateMutability": "nonpayable",
      "type": "constructor"
    },
    {
      "inputs": [
        {
          "internalType": "uint256",
          "name": "",
          "type": "uint256"
        }
      ],
      "name": "states",
      "outputs": [
        {
          "internalType": "string",
          "name": "",
          "type": "string"
        }
      ],
      "stateMutability": "view",
      "type": "function",
      "constant": true
    },
    {
      "inputs": [
        {
          "internalType": "string",
          "name": "_Manufacturer_Address",
          "type": "string"
        }
      ],
      "name": "enterAddress",
      "outputs": [],
      "stateMutability": "nonpayable",
      "type": "function"
    },
    {
      "inputs": [],
      "name": "getManufacturerAddress",
      "outputs": [
        {
          "internalType": "string",
          "name": "",
          "type": "string"
        }
      ],
      "stateMutability": "view",
      "type": "function",
      "constant": true
    },
    {
      "inputs": [
        {
          "internalType": "string",
          "name": "_ProductName",
          "type": "string"
        },
        {
          "internalType": "string",
          "name": "_ProductType",
          "type": "string"
        },
        {
          "internalType": "uint256",
          "name": "_ProductPrice",
          "type": "uint256"
        },
        {
          "internalType": "address",
          "name": "_Receiver",
          "type": "address"
        },
        {
          "internalType": "address",
          "name": "_Manufacturer",
          "type": "address"
        }
      ],
      "name": "createProduct",
      "outputs": [],
      "stateMutability": "nonpayable",
      "type": "function"
    },
    {
      "inputs": [
        {
          "internalType": "address",
          "name": "addr",
          "type": "address"
        }
      ],
      "name": "ChangeState",
      "outputs": [],
      "stateMutability": "nonpayable",
      "type": "function"
    },
    {
      "inputs": [],
      "name": "getAllProductAddr",
      "outputs": [
        {
          "internalType": "address[]",
          "name": "",
          "type": "address[]"
        }
      ],
      "stateMutability": "view",
      "type": "function",
      "constant": true
    },
    {
      "inputs": [],
      "name": "getAllProduct",
      "outputs": [
        {
          "components": [
            {
              "internalType": "uint256",
              "name": "Serial",
              "type": "uint256"
            },
            {
              "internalType": "address",
              "name": "Manufacturer",
              "type": "address"
            },
            {
              "internalType": "address",
              "name": "ProductID",
              "type": "address"
            },
            {
              "internalType": "address",
              "name": "Receiver",
              "type": "address"
            },
            {
              "internalType": "string",
              "name": "ProductName",
              "type": "string"
            },
            {
              "internalType": "string",
              "name": "ProductType",
              "type": "string"
            },
            {
              "internalType": "uint256",
              "name": "ProductPrice",
              "type": "uint256"
            },
            {
              "internalType": "uint256",
              "name": "TimeStamp",
              "type": "uint256"
            },
            {
              "internalType": "string",
              "name": "State",
              "type": "string"
            }
          ],
          "internalType": "struct SupplyChain.ProductDetail[]",
          "name": "",
          "type": "tuple[]"
        }
      ],
      "stateMutability": "view",
      "type": "function",
      "constant": true
    },
    {
      "inputs": [
        {
          "internalType": "address",
          "name": "id",
          "type": "address"
        }
      ],
      "name": "getProductState",
      "outputs": [
        {
          "internalType": "uint256",
          "name": "",
          "type": "uint256"
        },
        {
          "internalType": "uint256",
          "name": "",
          "type": "uint256"
        },
        {
          "internalType": "uint256",
          "name": "",
          "type": "uint256"
        },
        {
          "internalType": "uint256",
          "name": "",
          "type": "uint256"
        },
        {
          "internalType": "uint256",
          "name": "",
          "type": "uint256"
        }
      ],
      "stateMutability": "view",
      "type": "function",
      "constant": true
    },
    {
      "inputs": [
        {
          "internalType": "address",
          "name": "id",
          "type": "address"
        }
      ],
      "name": "getProduct",
      "outputs": [
        {
          "internalType": "uint256",
          "name": "",
          "type": "uint256"
        },
        {
          "internalType": "address",
          "name": "",
          "type": "address"
        },
        {
          "internalType": "address",
          "name": "",
          "type": "address"
        },
        {
          "internalType": "address",
          "name": "",
          "type": "address"
        },
        {
          "internalType": "string",
          "name": "",
          "type": "string"
        },
        {
          "internalType": "string",
          "name": "",
          "type": "string"
        },
        {
          "internalType": "uint256",
          "name": "",
          "type": "uint256"
        },
        {
          "internalType": "uint256",
          "name": "",
          "type": "uint256"
        },
        {
          "internalType": "string",
          "name": "",
          "type": "string"
        }
      ],
      "stateMutability": "view",
      "type": "function",
      "constant": true
    },
    {
      "inputs": [
        {
          "internalType": "address",
          "name": "id",
          "type": "address"
        }
      ],
      "name": "Delete",
      "outputs": [],
      "stateMutability": "nonpayable",
      "type": "function"
    },
    {
      "inputs": [],
      "name": "N_Product",
      "outputs": [
        {
          "components": [
            {
              "internalType": "uint256",
              "name": "Serial",
              "type": "uint256"
            },
            {
              "internalType": "address",
              "name": "Manufacturer",
              "type": "address"
            },
            {
              "internalType": "address",
              "name": "ProductID",
              "type": "address"
            },
            {
              "internalType": "address",
              "name": "Receiver",
              "type": "address"
            },
            {
              "internalType": "string",
              "name": "ProductName",
              "type": "string"
            },
            {
              "internalType": "string",
              "name": "ProductType",
              "type": "string"
            },
            {
              "internalType": "uint256",
              "name": "ProductPrice",
              "type": "uint256"
            },
            {
              "internalType": "uint256",
              "name": "TimeStamp",
              "type": "uint256"
            },
            {
              "internalType": "string",
              "name": "State",
              "type": "string"
            }
          ],
          "internalType": "struct SupplyChain.ProductDetail[]",
          "name": "",
          "type": "tuple[]"
        }
      ],
      "stateMutability": "view",
      "type": "function",
      "constant": true
    }
  ],
  "bytecode": "0x60806040523480156200001157600080fd5b506040518060400160405280600781526020017f53455454494e4700000000000000000000000000000000000000000000000000815250600080600581106200005f576200005e620002c0565b5b0190805190602001906200007592919062000210565b506040518060400160405280600781526020017f50524f43455353000000000000000000000000000000000000000000000000008152506000600160058110620000c457620000c3620002c0565b5b019080519060200190620000da92919062000210565b506040518060400160405280600681526020017f46494e49534800000000000000000000000000000000000000000000000000008152506000600260058110620001295762000128620002c0565b5b0190805190602001906200013f92919062000210565b506040518060400160405280600a81526020017f494e5f5452414e5349540000000000000000000000000000000000000000000081525060006003600581106200018e576200018d620002c0565b5b019080519060200190620001a492919062000210565b506040518060400160405280600781526020017f41525249564544000000000000000000000000000000000000000000000000008152506000600460058110620001f357620001f2620002c0565b5b0190805190602001906200020992919062000210565b5062000354565b8280546200021e906200031e565b90600052602060002090601f0160209004810192826200024257600085556200028e565b82601f106200025d57805160ff19168380011785556200028e565b828001600101855582156200028e579182015b828111156200028d57825182559160200191906001019062000270565b5b5090506200029d9190620002a1565b5090565b5b80821115620002bc576000816000905550600101620002a2565b5090565b7f4e487b7100000000000000000000000000000000000000000000000000000000600052603260045260246000fd5b7f4e487b7100000000000000000000000000000000000000000000000000000000600052602260045260246000fd5b600060028204905060018216806200033757607f821691505b602082108114156200034e576200034d620002ef565b5b50919050565b613ede80620003646000396000f3fe608060405234801561001057600080fd5b50600436106100a95760003560e01c8063bd03adf011610071578063bd03adf01461016a578063c305f34014610188578063d03a4dcd146101a4578063d055a75f146101c0578063d9aba9ce146101de578063e9269ec714610216576100a9565b8063017a9105146100ae57806308071e6d146100de5780634f77df2a146101125780638319f7601461012e5780638462ca121461014c575b600080fd5b6100c860048036038101906100c391906133d9565b610232565b6040516100d5919061349f565b60405180910390f35b6100f860048036038101906100f3919061351f565b6102d5565b60405161010995949392919061355b565b60405180910390f35b61012c6004803603810190610127919061351f565b6104a7565b005b6101366111c9565b604051610143919061366c565b60405180910390f35b610154611257565b604051610161919061387c565b60405180910390f35b61017261158d565b60405161017f919061349f565b60405180910390f35b6101a2600480360381019061019d91906139d3565b61161f565b005b6101be60048036038101906101b9919061351f565b611639565b005b6101c86119fb565b6040516101d5919061387c565b60405180910390f35b6101f860048036038101906101f3919061351f565b611d31565b60405161020d99989796959493929190613a2b565b60405180910390f35b610230600480360381019061022b9190613acd565b612230565b005b6000816005811061024257600080fd5b01600091509050805461025490613baf565b80601f016020809104026020016040519081016040528092919081815260200182805461028090613baf565b80156102cd5780601f106102a2576101008083540402835291602001916102cd565b820191906000526020600020905b8154815290600101906020018083116102b057829003601f168201915b505050505081565b6000806000806000600560008773ffffffffffffffffffffffffffffffffffffffff1673ffffffffffffffffffffffffffffffffffffffff168152602001908152602001600020600701600080815260200190815260200160002060000154600560008873ffffffffffffffffffffffffffffffffffffffff1673ffffffffffffffffffffffffffffffffffffffff16815260200190815260200160002060070160006001815260200190815260200160002060000154600560008973ffffffffffffffffffffffffffffffffffffffff1673ffffffffffffffffffffffffffffffffffffffff16815260200190815260200160002060070160006002815260200190815260200160002060000154600560008a73ffffffffffffffffffffffffffffffffffffffff1673ffffffffffffffffffffffffffffffffffffffff16815260200190815260200160002060070160006003815260200190815260200160002060000154600560008b73ffffffffffffffffffffffffffffffffffffffff1673ffffffffffffffffffffffffffffffffffffffff168152602001908152602001600020600701600060048152602001908152602001600020600001549450945094509450945091939590929450565b600560008273ffffffffffffffffffffffffffffffffffffffff1673ffffffffffffffffffffffffffffffffffffffff16815260200190815260200160002060000160008154809291906104fa90613c10565b91905055506000600560008373ffffffffffffffffffffffffffffffffffffffff1673ffffffffffffffffffffffffffffffffffffffff168152602001908152602001600020600001549050600060405180604001604052804281526020016000846005811061056d5761056c613c59565b5b01805461057990613baf565b80601f01602080910402602001604051908101604052809291908181526020018280546105a590613baf565b80156105f25780601f106105c7576101008083540402835291602001916105f2565b820191906000526020600020905b8154815290600101906020018083116105d557829003601f168201915b5050505050815250905080600560008573ffffffffffffffffffffffffffffffffffffffff1673ffffffffffffffffffffffffffffffffffffffff168152602001908152602001600020600701600084815260200190815260200160002060008201518160000155602082015181600101908051906020019061067692919061321f565b5090505042600560008573ffffffffffffffffffffffffffffffffffffffff1673ffffffffffffffffffffffffffffffffffffffff1681526020019081526020016000206007016000848152602001908152602001600020600001819055506106de83611639565b6006604051806101200160405280600560008773ffffffffffffffffffffffffffffffffffffffff1673ffffffffffffffffffffffffffffffffffffffff168152602001908152602001600020600001548152602001600560008773ffffffffffffffffffffffffffffffffffffffff1673ffffffffffffffffffffffffffffffffffffffff16815260200190815260200160002060010160009054906101000a900473ffffffffffffffffffffffffffffffffffffffff1673ffffffffffffffffffffffffffffffffffffffff1681526020018573ffffffffffffffffffffffffffffffffffffffff168152602001600560008773ffffffffffffffffffffffffffffffffffffffff1673ffffffffffffffffffffffffffffffffffffffff16815260200190815260200160002060030160009054906101000a900473ffffffffffffffffffffffffffffffffffffffff1673ffffffffffffffffffffffffffffffffffffffff168152602001600560008773ffffffffffffffffffffffffffffffffffffffff1673ffffffffffffffffffffffffffffffffffffffff168152602001908152602001600020600401805461089990613baf565b80601f01602080910402602001604051908101604052809291908181526020018280546108c590613baf565b80156109125780601f106108e757610100808354040283529160200191610912565b820191906000526020600020905b8154815290600101906020018083116108f557829003601f168201915b50505050508152602001600560008773ffffffffffffffffffffffffffffffffffffffff1673ffffffffffffffffffffffffffffffffffffffff168152602001908152602001600020600501805461096990613baf565b80601f016020809104026020016040519081016040528092919081815260200182805461099590613baf565b80156109e25780601f106109b7576101008083540402835291602001916109e2565b820191906000526020600020905b8154815290600101906020018083116109c557829003601f168201915b50505050508152602001600560008773ffffffffffffffffffffffffffffffffffffffff1673ffffffffffffffffffffffffffffffffffffffff16815260200190815260200160002060060154815260200142815260200160008560058110610a4e57610a4d613c59565b5b018054610a5a90613baf565b80601f0160208091040260200160405190810160405280929190818152602001828054610a8690613baf565b8015610ad35780601f10610aa857610100808354040283529160200191610ad3565b820191906000526020600020905b815481529060010190602001808311610ab657829003601f168201915b505050505081525090806001815401808255809150506001900390600052602060002090600902016000909190919091506000820151816000015560208201518160010160006101000a81548173ffffffffffffffffffffffffffffffffffffffff021916908373ffffffffffffffffffffffffffffffffffffffff16021790555060408201518160020160006101000a81548173ffffffffffffffffffffffffffffffffffffffff021916908373ffffffffffffffffffffffffffffffffffffffff16021790555060608201518160030160006101000a81548173ffffffffffffffffffffffffffffffffffffffff021916908373ffffffffffffffffffffffffffffffffffffffff1602179055506080820151816004019080519060200190610bff92919061321f565b5060a0820151816005019080519060200190610c1c92919061321f565b5060c0820151816006015560e08201518160070155610100820151816008019080519060200190610c4e92919061321f565b5050506009604051806101200160405280600560008773ffffffffffffffffffffffffffffffffffffffff1673ffffffffffffffffffffffffffffffffffffffff168152602001908152602001600020600001548152602001600560008773ffffffffffffffffffffffffffffffffffffffff1673ffffffffffffffffffffffffffffffffffffffff16815260200190815260200160002060010160009054906101000a900473ffffffffffffffffffffffffffffffffffffffff1673ffffffffffffffffffffffffffffffffffffffff1681526020018573ffffffffffffffffffffffffffffffffffffffff168152602001600560008773ffffffffffffffffffffffffffffffffffffffff1673ffffffffffffffffffffffffffffffffffffffff16815260200190815260200160002060030160009054906101000a900473ffffffffffffffffffffffffffffffffffffffff1673ffffffffffffffffffffffffffffffffffffffff168152602001600560008773ffffffffffffffffffffffffffffffffffffffff1673ffffffffffffffffffffffffffffffffffffffff1681526020019081526020016000206004018054610e0c90613baf565b80601f0160208091040260200160405190810160405280929190818152602001828054610e3890613baf565b8015610e855780601f10610e5a57610100808354040283529160200191610e85565b820191906000526020600020905b815481529060010190602001808311610e6857829003601f168201915b50505050508152602001600560008773ffffffffffffffffffffffffffffffffffffffff1673ffffffffffffffffffffffffffffffffffffffff1681526020019081526020016000206005018054610edc90613baf565b80601f0160208091040260200160405190810160405280929190818152602001828054610f0890613baf565b8015610f555780601f10610f2a57610100808354040283529160200191610f55565b820191906000526020600020905b815481529060010190602001808311610f3857829003601f168201915b50505050508152602001600560008773ffffffffffffffffffffffffffffffffffffffff1673ffffffffffffffffffffffffffffffffffffffff16815260200190815260200160002060060154815260200142815260200160008560058110610fc157610fc0613c59565b5b018054610fcd90613baf565b80601f0160208091040260200160405190810160405280929190818152602001828054610ff990613baf565b80156110465780601f1061101b57610100808354040283529160200191611046565b820191906000526020600020905b81548152906001019060200180831161102957829003601f168201915b505050505081525090806001815401808255809150506001900390600052602060002090600902016000909190919091506000820151816000015560208201518160010160006101000a81548173ffffffffffffffffffffffffffffffffffffffff021916908373ffffffffffffffffffffffffffffffffffffffff16021790555060408201518160020160006101000a81548173ffffffffffffffffffffffffffffffffffffffff021916908373ffffffffffffffffffffffffffffffffffffffff16021790555060608201518160030160006101000a81548173ffffffffffffffffffffffffffffffffffffffff021916908373ffffffffffffffffffffffffffffffffffffffff160217905550608082015181600401908051906020019061117292919061321f565b5060a082015181600501908051906020019061118f92919061321f565b5060c0820151816006015560e082015181600701556101008201518160080190805190602001906111c192919061321f565b505050505050565b6060600780548060200260200160405190810160405280929190818152602001828054801561124d57602002820191906000526020600020905b8160009054906101000a900473ffffffffffffffffffffffffffffffffffffffff1673ffffffffffffffffffffffffffffffffffffffff1681526020019060010190808311611203575b5050505050905090565b60606009805480602002602001604051908101604052809291908181526020016000905b82821015611584578382906000526020600020906009020160405180610120016040529081600082015481526020016001820160009054906101000a900473ffffffffffffffffffffffffffffffffffffffff1673ffffffffffffffffffffffffffffffffffffffff1673ffffffffffffffffffffffffffffffffffffffff1681526020016002820160009054906101000a900473ffffffffffffffffffffffffffffffffffffffff1673ffffffffffffffffffffffffffffffffffffffff1673ffffffffffffffffffffffffffffffffffffffff1681526020016003820160009054906101000a900473ffffffffffffffffffffffffffffffffffffffff1673ffffffffffffffffffffffffffffffffffffffff1673ffffffffffffffffffffffffffffffffffffffff1681526020016004820180546113bb90613baf565b80601f01602080910402602001604051908101604052809291908181526020018280546113e790613baf565b80156114345780601f1061140957610100808354040283529160200191611434565b820191906000526020600020905b81548152906001019060200180831161141757829003601f168201915b5050505050815260200160058201805461144d90613baf565b80601f016020809104026020016040519081016040528092919081815260200182805461147990613baf565b80156114c65780601f1061149b576101008083540402835291602001916114c6565b820191906000526020600020905b8154815290600101906020018083116114a957829003601f168201915b5050505050815260200160068201548152602001600782015481526020016008820180546114f390613baf565b80601f016020809104026020016040519081016040528092919081815260200182805461151f90613baf565b801561156c5780601f106115415761010080835404028352916020019161156c565b820191906000526020600020905b81548152906001019060200180831161154f57829003601f168201915b5050505050815250508152602001906001019061127b565b50505050905090565b60606008805461159c90613baf565b80601f01602080910402602001604051908101604052809291908181526020018280546115c890613baf565b80156116155780601f106115ea57610100808354040283529160200191611615565b820191906000526020600020905b8154815290600101906020018083116115f857829003601f168201915b5050505050905090565b806008908051906020019061163592919061321f565b5050565b60005b6009805490508110156119f7578173ffffffffffffffffffffffffffffffffffffffff166009828154811061167457611673613c59565b5b906000526020600020906009020160020160009054906101000a900473ffffffffffffffffffffffffffffffffffffffff1673ffffffffffffffffffffffffffffffffffffffff1614156119e45760008190505b60016009805490506116da9190613c88565b8110156118fa5760096001826116f09190613cbc565b8154811061170157611700613c59565b5b90600052602060002090600902016009828154811061172357611722613c59565b5b9060005260206000209060090201600082015481600001556001820160009054906101000a900473ffffffffffffffffffffffffffffffffffffffff168160010160006101000a81548173ffffffffffffffffffffffffffffffffffffffff021916908373ffffffffffffffffffffffffffffffffffffffff1602179055506002820160009054906101000a900473ffffffffffffffffffffffffffffffffffffffff168160020160006101000a81548173ffffffffffffffffffffffffffffffffffffffff021916908373ffffffffffffffffffffffffffffffffffffffff1602179055506003820160009054906101000a900473ffffffffffffffffffffffffffffffffffffffff168160030160006101000a81548173ffffffffffffffffffffffffffffffffffffffff021916908373ffffffffffffffffffffffffffffffffffffffff160217905550600482018160040190805461188490613baf565b61188f9291906132a5565b5060058201816005019080546118a490613baf565b6118af9291906132a5565b50600682015481600601556007820154816007015560088201816008019080546118d890613baf565b6118e39291906132a5565b5090505080806118f290613c10565b9150506116c8565b50600980548061190d5761190c613d12565b5b60019003818190600052602060002090600902016000808201600090556001820160006101000a81549073ffffffffffffffffffffffffffffffffffffffff02191690556002820160006101000a81549073ffffffffffffffffffffffffffffffffffffffff02191690556003820160006101000a81549073ffffffffffffffffffffffffffffffffffffffff02191690556004820160006119af9190613332565b6005820160006119bf9190613332565b600682016000905560078201600090556008820160006119df9190613332565b505090555b80806119ef90613c10565b91505061163c565b5050565b60606006805480602002602001604051908101604052809291908181526020016000905b82821015611d28578382906000526020600020906009020160405180610120016040529081600082015481526020016001820160009054906101000a900473ffffffffffffffffffffffffffffffffffffffff1673ffffffffffffffffffffffffffffffffffffffff1673ffffffffffffffffffffffffffffffffffffffff1681526020016002820160009054906101000a900473ffffffffffffffffffffffffffffffffffffffff1673ffffffffffffffffffffffffffffffffffffffff1673ffffffffffffffffffffffffffffffffffffffff1681526020016003820160009054906101000a900473ffffffffffffffffffffffffffffffffffffffff1673ffffffffffffffffffffffffffffffffffffffff1673ffffffffffffffffffffffffffffffffffffffff168152602001600482018054611b5f90613baf565b80601f0160208091040260200160405190810160405280929190818152602001828054611b8b90613baf565b8015611bd85780601f10611bad57610100808354040283529160200191611bd8565b820191906000526020600020905b815481529060010190602001808311611bbb57829003601f168201915b50505050508152602001600582018054611bf190613baf565b80601f0160208091040260200160405190810160405280929190818152602001828054611c1d90613baf565b8015611c6a5780601f10611c3f57610100808354040283529160200191611c6a565b820191906000526020600020905b815481529060010190602001808311611c4d57829003601f168201915b505050505081526020016006820154815260200160078201548152602001600882018054611c9790613baf565b80601f0160208091040260200160405190810160405280929190818152602001828054611cc390613baf565b8015611d105780601f10611ce557610100808354040283529160200191611d10565b820191906000526020600020905b815481529060010190602001808311611cf357829003601f168201915b50505050508152505081526020019060010190611a1f565b50505050905090565b60008060008060608060008060606000600560008c73ffffffffffffffffffffffffffffffffffffffff1673ffffffffffffffffffffffffffffffffffffffff16815260200190815260200160002060000154905060008b9050600560008d73ffffffffffffffffffffffffffffffffffffffff1673ffffffffffffffffffffffffffffffffffffffff16815260200190815260200160002060000154600560008e73ffffffffffffffffffffffffffffffffffffffff1673ffffffffffffffffffffffffffffffffffffffff16815260200190815260200160002060010160009054906101000a900473ffffffffffffffffffffffffffffffffffffffff16600560008f73ffffffffffffffffffffffffffffffffffffffff1673ffffffffffffffffffffffffffffffffffffffff16815260200190815260200160002060020160009054906101000a900473ffffffffffffffffffffffffffffffffffffffff16600560008573ffffffffffffffffffffffffffffffffffffffff1673ffffffffffffffffffffffffffffffffffffffff16815260200190815260200160002060030160009054906101000a900473ffffffffffffffffffffffffffffffffffffffff16600560008673ffffffffffffffffffffffffffffffffffffffff1673ffffffffffffffffffffffffffffffffffffffff168152602001908152602001600020600401600560008773ffffffffffffffffffffffffffffffffffffffff1673ffffffffffffffffffffffffffffffffffffffff168152602001908152602001600020600501600560008873ffffffffffffffffffffffffffffffffffffffff1673ffffffffffffffffffffffffffffffffffffffff16815260200190815260200160002060060154600560008973ffffffffffffffffffffffffffffffffffffffff1673ffffffffffffffffffffffffffffffffffffffff16815260200190815260200160002060070160008a815260200190815260200160002060000154600560008a73ffffffffffffffffffffffffffffffffffffffff1673ffffffffffffffffffffffffffffffffffffffff16815260200190815260200160002060070160008b815260200190815260200160002060010184805461207790613baf565b80601f01602080910402602001604051908101604052809291908181526020018280546120a390613baf565b80156120f05780601f106120c5576101008083540402835291602001916120f0565b820191906000526020600020905b8154815290600101906020018083116120d357829003601f168201915b5050505050945083805461210390613baf565b80601f016020809104026020016040519081016040528092919081815260200182805461212f90613baf565b801561217c5780601f106121515761010080835404028352916020019161217c565b820191906000526020600020905b81548152906001019060200180831161215f57829003601f168201915b5050505050935080805461218f90613baf565b80601f01602080910402602001604051908101604052809291908181526020018280546121bb90613baf565b80156122085780601f106121dd57610100808354040283529160200191612208565b820191906000526020600020905b8154815290600101906020018083116121eb57829003601f168201915b505050505090509a509a509a509a509a509a509a509a509a5050509193959799909294969850565b600a600081548092919061224390613c10565b9190505550600060023342600a5460405160200161226393929190613daa565b60405160208183030381529060405260405161227f9190613e2e565b602060405180830381855afa15801561229c573d6000803e3d6000fd5b5050506040513d601f19601f820116820180604052508101906122bf9190613e7b565b60601c90506000600560008373ffffffffffffffffffffffffffffffffffffffff1673ffffffffffffffffffffffffffffffffffffffff1681526020019081526020016000206000018190555081600560008373ffffffffffffffffffffffffffffffffffffffff1673ffffffffffffffffffffffffffffffffffffffff16815260200190815260200160002060010160006101000a81548173ffffffffffffffffffffffffffffffffffffffff021916908373ffffffffffffffffffffffffffffffffffffffff16021790555080600560008373ffffffffffffffffffffffffffffffffffffffff1673ffffffffffffffffffffffffffffffffffffffff16815260200190815260200160002060020160006101000a81548173ffffffffffffffffffffffffffffffffffffffff021916908373ffffffffffffffffffffffffffffffffffffffff16021790555085600560008373ffffffffffffffffffffffffffffffffffffffff1673ffffffffffffffffffffffffffffffffffffffff168152602001908152602001600020600401908051906020019061246492919061321f565b5082600560008373ffffffffffffffffffffffffffffffffffffffff1673ffffffffffffffffffffffffffffffffffffffff16815260200190815260200160002060030160006101000a81548173ffffffffffffffffffffffffffffffffffffffff021916908373ffffffffffffffffffffffffffffffffffffffff16021790555084600560008373ffffffffffffffffffffffffffffffffffffffff1673ffffffffffffffffffffffffffffffffffffffff168152602001908152602001600020600501908051906020019061253c92919061321f565b5083600560008373ffffffffffffffffffffffffffffffffffffffff1673ffffffffffffffffffffffffffffffffffffffff1681526020019081526020016000206006018190555060006040518060400160405280428152602001600080600581106125ab576125aa613c59565b5b0180546125b790613baf565b80601f01602080910402602001604051908101604052809291908181526020018280546125e390613baf565b80156126305780601f1061260557610100808354040283529160200191612630565b820191906000526020600020905b81548152906001019060200180831161261357829003601f168201915b5050505050815250905080600560008473ffffffffffffffffffffffffffffffffffffffff1673ffffffffffffffffffffffffffffffffffffffff1681526020019081526020016000206007016000600560008673ffffffffffffffffffffffffffffffffffffffff1673ffffffffffffffffffffffffffffffffffffffff1681526020019081526020016000206000015481526020019081526020016000206000820151816000015560208201518160010190805190602001906126f692919061321f565b509050506000600560008473ffffffffffffffffffffffffffffffffffffffff1673ffffffffffffffffffffffffffffffffffffffff168152602001908152602001600020600701600060018152602001908152602001600020600001819055506000600560008473ffffffffffffffffffffffffffffffffffffffff1673ffffffffffffffffffffffffffffffffffffffff168152602001908152602001600020600701600060028152602001908152602001600020600001819055506000600560008473ffffffffffffffffffffffffffffffffffffffff1673ffffffffffffffffffffffffffffffffffffffff168152602001908152602001600020600701600060038152602001908152602001600020600001819055506000600560008473ffffffffffffffffffffffffffffffffffffffff1673ffffffffffffffffffffffffffffffffffffffff168152602001908152602001600020600701600060048152602001908152602001600020600001819055506007829080600181540180825580915050600190039060005260206000200160009091909190916101000a81548173ffffffffffffffffffffffffffffffffffffffff021916908373ffffffffffffffffffffffffffffffffffffffff1602179055506006604051806101200160405280600560008673ffffffffffffffffffffffffffffffffffffffff1673ffffffffffffffffffffffffffffffffffffffff1681526020019081526020016000206000015481526020018573ffffffffffffffffffffffffffffffffffffffff1681526020018473ffffffffffffffffffffffffffffffffffffffff1681526020018673ffffffffffffffffffffffffffffffffffffffff168152602001898152602001888152602001878152602001428152602001600080600581106129a7576129a6613c59565b5b0180546129b390613baf565b80601f01602080910402602001604051908101604052809291908181526020018280546129df90613baf565b8015612a2c5780601f10612a0157610100808354040283529160200191612a2c565b820191906000526020600020905b815481529060010190602001808311612a0f57829003601f168201915b505050505081525090806001815401808255809150506001900390600052602060002090600902016000909190919091506000820151816000015560208201518160010160006101000a81548173ffffffffffffffffffffffffffffffffffffffff021916908373ffffffffffffffffffffffffffffffffffffffff16021790555060408201518160020160006101000a81548173ffffffffffffffffffffffffffffffffffffffff021916908373ffffffffffffffffffffffffffffffffffffffff16021790555060608201518160030160006101000a81548173ffffffffffffffffffffffffffffffffffffffff021916908373ffffffffffffffffffffffffffffffffffffffff1602179055506080820151816004019080519060200190612b5892919061321f565b5060a0820151816005019080519060200190612b7592919061321f565b5060c0820151816006015560e08201518160070155610100820151816008019080519060200190612ba792919061321f565b5050506009604051806101200160405280600560008673ffffffffffffffffffffffffffffffffffffffff1673ffffffffffffffffffffffffffffffffffffffff168152602001908152602001600020600001548152602001600560008673ffffffffffffffffffffffffffffffffffffffff1673ffffffffffffffffffffffffffffffffffffffff16815260200190815260200160002060010160009054906101000a900473ffffffffffffffffffffffffffffffffffffffff1673ffffffffffffffffffffffffffffffffffffffff168152602001600560008673ffffffffffffffffffffffffffffffffffffffff1673ffffffffffffffffffffffffffffffffffffffff16815260200190815260200160002060020160009054906101000a900473ffffffffffffffffffffffffffffffffffffffff1673ffffffffffffffffffffffffffffffffffffffff168152602001600560008673ffffffffffffffffffffffffffffffffffffffff1673ffffffffffffffffffffffffffffffffffffffff16815260200190815260200160002060030160009054906101000a900473ffffffffffffffffffffffffffffffffffffffff1673ffffffffffffffffffffffffffffffffffffffff168152602001600560008673ffffffffffffffffffffffffffffffffffffffff1673ffffffffffffffffffffffffffffffffffffffff1681526020019081526020016000206004018054612dc790613baf565b80601f0160208091040260200160405190810160405280929190818152602001828054612df390613baf565b8015612e405780601f10612e1557610100808354040283529160200191612e40565b820191906000526020600020905b815481529060010190602001808311612e2357829003601f168201915b50505050508152602001600560008673ffffffffffffffffffffffffffffffffffffffff1673ffffffffffffffffffffffffffffffffffffffff1681526020019081526020016000206005018054612e9790613baf565b80601f0160208091040260200160405190810160405280929190818152602001828054612ec390613baf565b8015612f105780601f10612ee557610100808354040283529160200191612f10565b820191906000526020600020905b815481529060010190602001808311612ef357829003601f168201915b50505050508152602001600560008673ffffffffffffffffffffffffffffffffffffffff1673ffffffffffffffffffffffffffffffffffffffff168152602001908152602001600020600601548152602001600560008673ffffffffffffffffffffffffffffffffffffffff1673ffffffffffffffffffffffffffffffffffffffff1681526020019081526020016000206007016000808152602001908152602001600020600001548152602001600560008673ffffffffffffffffffffffffffffffffffffffff1673ffffffffffffffffffffffffffffffffffffffff1681526020019081526020016000206007016000808152602001908152602001600020600101805461301f90613baf565b80601f016020809104026020016040519081016040528092919081815260200182805461304b90613baf565b80156130985780601f1061306d57610100808354040283529160200191613098565b820191906000526020600020905b81548152906001019060200180831161307b57829003601f168201915b505050505081525090806001815401808255809150506001900390600052602060002090600902016000909190919091506000820151816000015560208201518160010160006101000a81548173ffffffffffffffffffffffffffffffffffffffff021916908373ffffffffffffffffffffffffffffffffffffffff16021790555060408201518160020160006101000a81548173ffffffffffffffffffffffffffffffffffffffff021916908373ffffffffffffffffffffffffffffffffffffffff16021790555060608201518160030160006101000a81548173ffffffffffffffffffffffffffffffffffffffff021916908373ffffffffffffffffffffffffffffffffffffffff16021790555060808201518160040190805190602001906131c492919061321f565b5060a08201518160050190805190602001906131e192919061321f565b5060c0820151816006015560e0820151816007015561010082015181600801908051906020019061321392919061321f565b50505050505050505050565b82805461322b90613baf565b90600052602060002090601f01602090048101928261324d5760008555613294565b82601f1061326657805160ff1916838001178555613294565b82800160010185558215613294579182015b82811115613293578251825591602001919060010190613278565b5b5090506132a19190613372565b5090565b8280546132b190613baf565b90600052602060002090601f0160209004810192826132d35760008555613321565b82601f106132e45780548555613321565b8280016001018555821561332157600052602060002091601f016020900482015b82811115613320578254825591600101919060010190613305565b5b50905061332e9190613372565b5090565b50805461333e90613baf565b6000825580601f10613350575061336f565b601f01602090049060005260206000209081019061336e9190613372565b5b50565b5b8082111561338b576000816000905550600101613373565b5090565b6000604051905090565b600080fd5b600080fd5b6000819050919050565b6133b6816133a3565b81146133c157600080fd5b50565b6000813590506133d3816133ad565b92915050565b6000602082840312156133ef576133ee613399565b5b60006133fd848285016133c4565b91505092915050565b600081519050919050565b600082825260208201905092915050565b60005b83811015613440578082015181840152602081019050613425565b8381111561344f576000848401525b50505050565b6000601f19601f8301169050919050565b600061347182613406565b61347b8185613411565b935061348b818560208601613422565b61349481613455565b840191505092915050565b600060208201905081810360008301526134b98184613466565b905092915050565b600073ffffffffffffffffffffffffffffffffffffffff82169050919050565b60006134ec826134c1565b9050919050565b6134fc816134e1565b811461350757600080fd5b50565b600081359050613519816134f3565b92915050565b60006020828403121561353557613534613399565b5b60006135438482850161350a565b91505092915050565b613555816133a3565b82525050565b600060a082019050613570600083018861354c565b61357d602083018761354c565b61358a604083018661354c565b613597606083018561354c565b6135a4608083018461354c565b9695505050505050565b600081519050919050565b600082825260208201905092915050565b6000819050602082019050919050565b6135e3816134e1565b82525050565b60006135f583836135da565b60208301905092915050565b6000602082019050919050565b6000613619826135ae565b61362381856135b9565b935061362e836135ca565b8060005b8381101561365f57815161364688826135e9565b975061365183613601565b925050600181019050613632565b5085935050505092915050565b60006020820190508181036000830152613686818461360e565b905092915050565b600081519050919050565b600082825260208201905092915050565b6000819050602082019050919050565b6136c3816133a3565b82525050565b600082825260208201905092915050565b60006136e582613406565b6136ef81856136c9565b93506136ff818560208601613422565b61370881613455565b840191505092915050565b60006101208301600083015161372c60008601826136ba565b50602083015161373f60208601826135da565b50604083015161375260408601826135da565b50606083015161376560608601826135da565b506080830151848203608086015261377d82826136da565b91505060a083015184820360a086015261379782826136da565b91505060c08301516137ac60c08601826136ba565b5060e08301516137bf60e08601826136ba565b506101008301518482036101008601526137d982826136da565b9150508091505092915050565b60006137f28383613713565b905092915050565b6000602082019050919050565b60006138128261368e565b61381c8185613699565b93508360208202850161382e856136aa565b8060005b8581101561386a578484038952815161384b85826137e6565b9450613856836137fa565b925060208a01995050600181019050613832565b50829750879550505050505092915050565b600060208201905081810360008301526138968184613807565b905092915050565b600080fd5b600080fd5b7f4e487b7100000000000000000000000000000000000000000000000000000000600052604160045260246000fd5b6138e082613455565b810181811067ffffffffffffffff821117156138ff576138fe6138a8565b5b80604052505050565b600061391261338f565b905061391e82826138d7565b919050565b600067ffffffffffffffff82111561393e5761393d6138a8565b5b61394782613455565b9050602081019050919050565b82818337600083830152505050565b600061397661397184613923565b613908565b905082815260208101848484011115613992576139916138a3565b5b61399d848285613954565b509392505050565b600082601f8301126139ba576139b961389e565b5b81356139ca848260208601613963565b91505092915050565b6000602082840312156139e9576139e8613399565b5b600082013567ffffffffffffffff811115613a0757613a0661339e565b5b613a13848285016139a5565b91505092915050565b613a25816134e1565b82525050565b600061012082019050613a41600083018c61354c565b613a4e602083018b613a1c565b613a5b604083018a613a1c565b613a686060830189613a1c565b8181036080830152613a7a8188613466565b905081810360a0830152613a8e8187613466565b9050613a9d60c083018661354c565b613aaa60e083018561354c565b818103610100830152613abd8184613466565b90509a9950505050505050505050565b600080600080600060a08688031215613ae957613ae8613399565b5b600086013567ffffffffffffffff811115613b0757613b0661339e565b5b613b13888289016139a5565b955050602086013567ffffffffffffffff811115613b3457613b3361339e565b5b613b40888289016139a5565b9450506040613b51888289016133c4565b9350506060613b628882890161350a565b9250506080613b738882890161350a565b9150509295509295909350565b7f4e487b7100000000000000000000000000000000000000000000000000000000600052602260045260246000fd5b60006002820490506001821680613bc757607f821691505b60208210811415613bdb57613bda613b80565b5b50919050565b7f4e487b7100000000000000000000000000000000000000000000000000000000600052601160045260246000fd5b6000613c1b826133a3565b91507fffffffffffffffffffffffffffffffffffffffffffffffffffffffffffffffff821415613c4e57613c4d613be1565b5b600182019050919050565b7f4e487b7100000000000000000000000000000000000000000000000000000000600052603260045260246000fd5b6000613c93826133a3565b9150613c9e836133a3565b925082821015613cb157613cb0613be1565b5b828203905092915050565b6000613cc7826133a3565b9150613cd2836133a3565b9250827fffffffffffffffffffffffffffffffffffffffffffffffffffffffffffffffff03821115613d0757613d06613be1565b5b828201905092915050565b7f4e487b7100000000000000000000000000000000000000000000000000000000600052603160045260246000fd5b60008160601b9050919050565b6000613d5982613d41565b9050919050565b6000613d6b82613d4e565b9050919050565b613d83613d7e826134e1565b613d60565b82525050565b6000819050919050565b613da4613d9f826133a3565b613d89565b82525050565b6000613db68286613d72565b601482019150613dc68285613d93565b602082019150613dd68284613d93565b602082019150819050949350505050565b600081519050919050565b600081905092915050565b6000613e0882613de7565b613e128185613df2565b9350613e22818560208601613422565b80840191505092915050565b6000613e3a8284613dfd565b915081905092915050565b6000819050919050565b613e5881613e45565b8114613e6357600080fd5b50565b600081519050613e7581613e4f565b92915050565b600060208284031215613e9157613e90613399565b5b6000613e9f84828501613e66565b9150509291505056fea2646970667358221220ed3228df053bdf0b06208f57efa166eaddf89f547e015d56a248561db6c721e764736f6c634300080a0033",
  "immutableReferences": {},
  "source": "//SPDX-License-Identifier: MIT\r\n\r\npragma solidity >=0.7.0 <0.9.0;\r\n\r\ncontract SupplyChain {\r\n    // \r\n    struct Product {\r\n        uint Serial;\r\n        address Manufacturer;\r\n        address ProductID;\r\n        address Receiver;\r\n        string ProductName;\r\n        string ProductType;\r\n        uint ProductPrice;\r\n        mapping(uint => StateTime) State;\r\n    }\r\n    // (time)\r\n    struct StateTime {\r\n        uint TimeStamp;\r\n        string State;\r\n    }\r\n    //\r\n    string[5] public states;\r\n    //\r\n    constructor() {\r\n        states[0] = \"SETTING\";\r\n        states[1] = \"PROCESS\";\r\n        states[2] = \"FINISH\";\r\n        states[3] = \"IN_TRANSIT\";\r\n        states[4] = \"ARRIVED\";\r\n    }\r\n    // \r\n    // struct Supplier {\r\n    //     address _product;\r\n    //     string Supply;\r\n    // }\r\n    // \r\n    struct ProductDetail {\r\n        uint Serial;\r\n        address Manufacturer;\r\n        address ProductID;\r\n        address Receiver;\r\n        string ProductName;\r\n        string ProductType;\r\n        uint ProductPrice;\r\n        uint TimeStamp;\r\n        string State;\r\n    }\r\n\r\n    mapping(address => Product) myproduct;\r\n    ProductDetail[] products;\r\n    address[] ProductAddresses;\r\n    string Manufacturer_Address;\r\n    ProductDetail[] N_Products;\r\n\r\n    // Supplier[] suppliers;\r\n\r\n    // \r\n    // function AddSupplier(address _addr, string memory _supplier) public {\r\n    //     suppliers.push(Supplier(_addr, _supplier));\r\n    // }\r\n\r\n    // \r\n    // function getSupplier() public view returns (Supplier[] memory) {\r\n    //     return suppliers;\r\n    // }\r\n\r\n    // Address\r\n    function enterAddress(string memory _Manufacturer_Address) public {\r\n        Manufacturer_Address = _Manufacturer_Address;\r\n    }\r\n\r\n    // Address\r\n    function getManufacturerAddress() public view returns (string memory) {\r\n        return Manufacturer_Address;\r\n    }\r\n\r\n    // 0productsN_Products\r\n    uint nonce;\r\n\r\n    function createProduct(\r\n        string memory _ProductName,\r\n        string memory _ProductType,\r\n        uint _ProductPrice,\r\n        address _Receiver,\r\n        address _Manufacturer\r\n    ) public {\r\n        nonce++;\r\n        address addr = address(\r\n            bytes20(\r\n                sha256(abi.encodePacked(msg.sender, block.timestamp, nonce))\r\n            )\r\n        );\r\n        myproduct[addr].Serial = 0;\r\n\r\n        myproduct[addr].Manufacturer = _Manufacturer;\r\n        myproduct[addr].ProductID = addr;\r\n        myproduct[addr].ProductName = _ProductName;\r\n        myproduct[addr].Receiver = _Receiver;\r\n        // Supplier memory _supply = Supplier(msg.sender);\r\n        // myproduct[addr].Supply[0] = _supply;\r\n\r\n        myproduct[addr].ProductType = _ProductType;\r\n        myproduct[addr].ProductPrice = _ProductPrice;\r\n        StateTime memory _state = StateTime(block.timestamp, states[0]);\r\n        myproduct[addr].State[myproduct[addr].Serial] = _state;\r\n\r\n        myproduct[addr].State[1].TimeStamp = 0;\r\n        myproduct[addr].State[2].TimeStamp = 0;\r\n        myproduct[addr].State[3].TimeStamp = 0;\r\n        myproduct[addr].State[4].TimeStamp = 0;\r\n\r\n        ProductAddresses.push(addr);\r\n        products.push(\r\n            ProductDetail(\r\n                myproduct[addr].Serial,\r\n                _Manufacturer,\r\n                addr,\r\n                _Receiver,\r\n                _ProductName,\r\n                _ProductType,\r\n                _ProductPrice,\r\n                block.timestamp,\r\n                states[0]\r\n            )\r\n        );\r\n\r\n        N_Products.push(\r\n            ProductDetail(\r\n                myproduct[addr].Serial,\r\n                myproduct[addr].Manufacturer,\r\n                myproduct[addr].ProductID,\r\n                myproduct[addr].Receiver,\r\n                myproduct[addr].ProductName,\r\n                myproduct[addr].ProductType,\r\n                myproduct[addr].ProductPrice,\r\n                myproduct[addr].State[0].TimeStamp,\r\n                myproduct[addr].State[0].State\r\n            )\r\n        );\r\n    }\r\n\r\n    // productsN_Products\r\n    function ChangeState(address addr) public {\r\n        myproduct[addr].Serial++;\r\n        uint _serial = myproduct[addr].Serial;\r\n\r\n        StateTime memory _state = StateTime(block.timestamp, states[_serial]);\r\n        myproduct[addr].State[_serial] = _state;\r\n        myproduct[addr].State[_serial].TimeStamp = block.timestamp;\r\n        Delete(addr);\r\n\r\n        products.push(\r\n            ProductDetail(\r\n                myproduct[addr].Serial,\r\n                myproduct[addr].Manufacturer,\r\n                addr,\r\n                myproduct[addr].Receiver,\r\n                myproduct[addr].ProductName,\r\n                myproduct[addr].ProductType,\r\n                myproduct[addr].ProductPrice,\r\n                block.timestamp,\r\n                states[_serial]\r\n            )\r\n        );\r\n\r\n        N_Products.push(\r\n            ProductDetail(\r\n                myproduct[addr].Serial,\r\n                myproduct[addr].Manufacturer,\r\n                addr,\r\n                myproduct[addr].Receiver,\r\n                myproduct[addr].ProductName,\r\n                myproduct[addr].ProductType,\r\n                myproduct[addr].ProductPrice,\r\n                block.timestamp,\r\n                states[_serial]\r\n            )\r\n        );\r\n    }\r\n\r\n    // \r\n    function getAllProductAddr() external view returns (address[] memory) {\r\n        return ProductAddresses;\r\n    }\r\n\r\n    // \r\n    function getAllProduct() public view returns (ProductDetail[] memory) {\r\n        return products;\r\n    }\r\n\r\n    // \r\n    function getProductState(\r\n        address id\r\n    ) public view returns (uint, uint, uint, uint, uint) {\r\n        return (\r\n            myproduct[id].State[0].TimeStamp,\r\n            myproduct[id].State[1].TimeStamp,\r\n            myproduct[id].State[2].TimeStamp,\r\n            myproduct[id].State[3].TimeStamp,\r\n            myproduct[id].State[4].TimeStamp\r\n        );\r\n    }\r\n\r\n    // \r\n    function getProduct(\r\n        address id\r\n    ) public view\r\n        returns (\r\n            uint,\r\n            address,\r\n            address,\r\n            address,\r\n            string memory,\r\n            string memory,\r\n            uint,\r\n            uint,\r\n            string memory\r\n        )\r\n    {\r\n        uint _serial = myproduct[id].Serial;\r\n        address _id = id;\r\n        return (\r\n            myproduct[id].Serial,\r\n            myproduct[id].Manufacturer,\r\n            myproduct[id].ProductID,\r\n            myproduct[_id].Receiver,\r\n            myproduct[_id].ProductName,\r\n            myproduct[_id].ProductType,\r\n            myproduct[_id].ProductPrice,\r\n            myproduct[_id].State[_serial].TimeStamp,\r\n            myproduct[_id].State[_serial].State\r\n        );\r\n    }\r\n\r\n    // N_Products\r\n    function Delete(address id) public {\r\n        for (uint i = 0; i < N_Products.length; i++) {\r\n            if (N_Products[i].ProductID == id) {\r\n                for (uint j = i; j < N_Products.length - 1; j++) {\r\n                    N_Products[j] = N_Products[j + 1];\r\n                }\r\n                N_Products.pop();\r\n            }\r\n        }\r\n    }\r\n\r\n    // N_Products\r\n    function N_Product() public view returns (ProductDetail[] memory) {\r\n        return N_Products;\r\n    }\r\n}\r\n",
  "sourcePath": "C:\\workspace\\blockchain\\blockchain_project\\contracts\\supplychain.sol",
  "compiler": {
    "name": "solc",
    "version": "0.8.10+commit.fc410830.Emscripten.clang"
  },
  "schemaVersion": "3.4.16",
  "updatedAt": "2024-01-07T06:01:44.132Z",
  "networkType": "ethereum",
  "devdoc": {
    "kind": "dev",
    "methods": {},
    "version": 1
  },
  "userdoc": {
    "kind": "user",
    "methods": {},
    "version": 1
  }
}