{
  "contractName": "SupplyChain",
  "abi": [
    {
      "inputs": [
        {
          "internalType": "string",
          "name": "_ProductName",
          "type": "string"
        },
        {
          "internalType": "string",
          "name": "_ProductType",
          "type": "string"
        },
        {
          "internalType": "uint256",
          "name": "_ProductPrice",
          "type": "uint256"
        }
      ],
      "name": "createProduct",
      "outputs": [],
      "stateMutability": "nonpayable",
      "type": "function"
    },
    {
      "inputs": [
        {
          "internalType": "string",
          "name": "_Manufacturer_Address",
          "type": "string"
        }
      ],
      "name": "enterAddress",
      "outputs": [],
      "stateMutability": "nonpayable",
      "type": "function"
    },
    {
      "inputs": [],
      "name": "getManufacturerAddress",
      "outputs": [
        {
          "internalType": "string",
          "name": "",
          "type": "string"
        }
      ],
      "stateMutability": "view",
      "type": "function",
      "constant": true
    },
    {
      "inputs": [],
      "name": "getAllProductAddr",
      "outputs": [
        {
          "internalType": "address[]",
          "name": "",
          "type": "address[]"
        }
      ],
      "stateMutability": "view",
      "type": "function",
      "constant": true
    },
    {
      "inputs": [],
      "name": "getAllProduct",
      "outputs": [
        {
          "components": [
            {
              "internalType": "address",
              "name": "Manufacturer",
              "type": "address"
            },
            {
              "internalType": "address",
              "name": "ProductID",
              "type": "address"
            },
            {
              "internalType": "string",
              "name": "ProductName",
              "type": "string"
            },
            {
              "internalType": "string",
              "name": "ProductType",
              "type": "string"
            },
            {
              "internalType": "uint256",
              "name": "ProductPrice",
              "type": "uint256"
            },
            {
              "internalType": "uint256",
              "name": "TimeStamp",
              "type": "uint256"
            },
            {
              "internalType": "enum ProductState",
              "name": "state",
              "type": "uint8"
            }
          ],
          "internalType": "struct SupplyChain.Product[]",
          "name": "",
          "type": "tuple[]"
        }
      ],
      "stateMutability": "view",
      "type": "function",
      "constant": true
    },
    {
      "inputs": [
        {
          "internalType": "address",
          "name": "id",
          "type": "address"
        }
      ],
      "name": "getProduct",
      "outputs": [
        {
          "internalType": "address",
          "name": "_Manufacturer",
          "type": "address"
        },
        {
          "internalType": "address",
          "name": "adrr",
          "type": "address"
        },
        {
          "internalType": "string",
          "name": "_ProductName",
          "type": "string"
        },
        {
          "internalType": "string",
          "name": "_ProductType",
          "type": "string"
        },
        {
          "internalType": "uint256",
          "name": "_ProductPrice",
          "type": "uint256"
        },
        {
          "internalType": "uint256",
          "name": "_TimeStamp",
          "type": "uint256"
        },
        {
          "internalType": "enum ProductState",
          "name": "_state",
          "type": "uint8"
        }
      ],
      "stateMutability": "view",
      "type": "function",
      "constant": true
    }
  ],
  "bytecode": "0x608060405234801561001057600080fd5b50611880806100206000396000f3fe608060405234801561001057600080fd5b50600436106100625760003560e01c80638319f76014610067578063a142220914610085578063bd03adf0146100a1578063c305f340146100bf578063d055a75f146100db578063d9aba9ce146100f9575b600080fd5b61006f61012f565b60405161007c9190610d95565b60405180910390f35b61009f600480360381019061009a9190610f47565b6101bd565b005b6100a96106cf565b6040516100b69190611051565b60405180910390f35b6100d960048036038101906100d49190611073565b610761565b005b6100e3610774565b6040516100f091906112f1565b60405180910390f35b610113600480360381019061010e919061133f565b6109f2565b6040516101269796959493929190611399565b60405180910390f35b606060018054806020026020016040519081016040528092919081815260200182805480156101b357602002820191906000526020600020905b8160009054906101000a900473ffffffffffffffffffffffffffffffffffffffff1673ffffffffffffffffffffffffffffffffffffffff1681526020019060010190808311610169575b5050505050905090565b6000600233426040516020016101d492919061147f565b6040516020818303038152906040526040516101f091906114f2565b602060405180830381855afa15801561020d573d6000803e3d6000fd5b5050506040513d601f19601f82011682018060405250810190610230919061153f565b60601c9050336000808373ffffffffffffffffffffffffffffffffffffffff1673ffffffffffffffffffffffffffffffffffffffff16815260200190815260200160002060000160006101000a81548173ffffffffffffffffffffffffffffffffffffffff021916908373ffffffffffffffffffffffffffffffffffffffff160217905550806000808373ffffffffffffffffffffffffffffffffffffffff1673ffffffffffffffffffffffffffffffffffffffff16815260200190815260200160002060010160006101000a81548173ffffffffffffffffffffffffffffffffffffffff021916908373ffffffffffffffffffffffffffffffffffffffff160217905550836000808373ffffffffffffffffffffffffffffffffffffffff1673ffffffffffffffffffffffffffffffffffffffff16815260200190815260200160002060020190816103839190611778565b50826000808373ffffffffffffffffffffffffffffffffffffffff1673ffffffffffffffffffffffffffffffffffffffff16815260200190815260200160002060030190816103d29190611778565b50816000808373ffffffffffffffffffffffffffffffffffffffff1673ffffffffffffffffffffffffffffffffffffffff16815260200190815260200160002060040181905550426000808373ffffffffffffffffffffffffffffffffffffffff1673ffffffffffffffffffffffffffffffffffffffff1681526020019081526020016000206005018190555060008060008373ffffffffffffffffffffffffffffffffffffffff1673ffffffffffffffffffffffffffffffffffffffff16815260200190815260200160002060060160006101000a81548160ff021916908360048111156104c4576104c3611141565b5b02179055506001819080600181540180825580915050600190039060005260206000200160009091909190916101000a81548173ffffffffffffffffffffffffffffffffffffffff021916908373ffffffffffffffffffffffffffffffffffffffff16021790555060026040518060e001604052803373ffffffffffffffffffffffffffffffffffffffff1681526020018373ffffffffffffffffffffffffffffffffffffffff1681526020018681526020018581526020018481526020014281526020016000600481111561059d5761059c611141565b5b815250908060018154018082558091505060019003906000526020600020906007020160009091909190915060008201518160000160006101000a81548173ffffffffffffffffffffffffffffffffffffffff021916908373ffffffffffffffffffffffffffffffffffffffff16021790555060208201518160010160006101000a81548173ffffffffffffffffffffffffffffffffffffffff021916908373ffffffffffffffffffffffffffffffffffffffff160217905550604082015181600201908161066c9190611778565b5060608201518160030190816106829190611778565b506080820151816004015560a0820151816005015560c08201518160060160006101000a81548160ff021916908360048111156106c2576106c1611141565b5b0217905550505050505050565b6060600380546106de9061159b565b80601f016020809104026020016040519081016040528092919081815260200182805461070a9061159b565b80156107575780601f1061072c57610100808354040283529160200191610757565b820191906000526020600020905b81548152906001019060200180831161073a57829003601f168201915b5050505050905090565b80600390816107709190611778565b5050565b60606002805480602002602001604051908101604052809291908181526020016000905b828210156109e957838290600052602060002090600702016040518060e00160405290816000820160009054906101000a900473ffffffffffffffffffffffffffffffffffffffff1673ffffffffffffffffffffffffffffffffffffffff1673ffffffffffffffffffffffffffffffffffffffff1681526020016001820160009054906101000a900473ffffffffffffffffffffffffffffffffffffffff1673ffffffffffffffffffffffffffffffffffffffff1673ffffffffffffffffffffffffffffffffffffffff1681526020016002820180546108779061159b565b80601f01602080910402602001604051908101604052809291908181526020018280546108a39061159b565b80156108f05780601f106108c5576101008083540402835291602001916108f0565b820191906000526020600020905b8154815290600101906020018083116108d357829003601f168201915b505050505081526020016003820180546109099061159b565b80601f01602080910402602001604051908101604052809291908181526020018280546109359061159b565b80156109825780601f1061095757610100808354040283529160200191610982565b820191906000526020600020905b81548152906001019060200180831161096557829003601f168201915b5050505050815260200160048201548152602001600582015481526020016006820160009054906101000a900460ff1660048111156109c4576109c3611141565b5b60048111156109d6576109d5611141565b5b8152505081526020019060010190610798565b50505050905090565b6000806060806000806000806000808a73ffffffffffffffffffffffffffffffffffffffff1673ffffffffffffffffffffffffffffffffffffffff1681526020019081526020016000206040518060e00160405290816000820160009054906101000a900473ffffffffffffffffffffffffffffffffffffffff1673ffffffffffffffffffffffffffffffffffffffff1673ffffffffffffffffffffffffffffffffffffffff1681526020016001820160009054906101000a900473ffffffffffffffffffffffffffffffffffffffff1673ffffffffffffffffffffffffffffffffffffffff1673ffffffffffffffffffffffffffffffffffffffff168152602001600282018054610b039061159b565b80601f0160208091040260200160405190810160405280929190818152602001828054610b2f9061159b565b8015610b7c5780601f10610b5157610100808354040283529160200191610b7c565b820191906000526020600020905b815481529060010190602001808311610b5f57829003601f168201915b50505050508152602001600382018054610b959061159b565b80601f0160208091040260200160405190810160405280929190818152602001828054610bc19061159b565b8015610c0e5780601f10610be357610100808354040283529160200191610c0e565b820191906000526020600020905b815481529060010190602001808311610bf157829003601f168201915b5050505050815260200160048201548152602001600582015481526020016006820160009054906101000a900460ff166004811115610c5057610c4f611141565b5b6004811115610c6257610c61611141565b5b815250509050806000015181602001518260400151836060015184608001518560a001518660c00151975097509750975097509750975050919395979092949650565b600081519050919050565b600082825260208201905092915050565b6000819050602082019050919050565b600073ffffffffffffffffffffffffffffffffffffffff82169050919050565b6000610cfc82610cd1565b9050919050565b610d0c81610cf1565b82525050565b6000610d1e8383610d03565b60208301905092915050565b6000602082019050919050565b6000610d4282610ca5565b610d4c8185610cb0565b9350610d5783610cc1565b8060005b83811015610d88578151610d6f8882610d12565b9750610d7a83610d2a565b925050600181019050610d5b565b5085935050505092915050565b60006020820190508181036000830152610daf8184610d37565b905092915050565b6000604051905090565b600080fd5b600080fd5b600080fd5b600080fd5b6000601f19601f8301169050919050565b7f4e487b7100000000000000000000000000000000000000000000000000000000600052604160045260246000fd5b610e1e82610dd5565b810181811067ffffffffffffffff82111715610e3d57610e3c610de6565b5b80604052505050565b6000610e50610db7565b9050610e5c8282610e15565b919050565b600067ffffffffffffffff821115610e7c57610e7b610de6565b5b610e8582610dd5565b9050602081019050919050565b82818337600083830152505050565b6000610eb4610eaf84610e61565b610e46565b905082815260208101848484011115610ed057610ecf610dd0565b5b610edb848285610e92565b509392505050565b600082601f830112610ef857610ef7610dcb565b5b8135610f08848260208601610ea1565b91505092915050565b6000819050919050565b610f2481610f11565b8114610f2f57600080fd5b50565b600081359050610f4181610f1b565b92915050565b600080600060608486031215610f6057610f5f610dc1565b5b600084013567ffffffffffffffff811115610f7e57610f7d610dc6565b5b610f8a86828701610ee3565b935050602084013567ffffffffffffffff811115610fab57610faa610dc6565b5b610fb786828701610ee3565b9250506040610fc886828701610f32565b9150509250925092565b600081519050919050565b600082825260208201905092915050565b60005b8381101561100c578082015181840152602081019050610ff1565b60008484015250505050565b600061102382610fd2565b61102d8185610fdd565b935061103d818560208601610fee565b61104681610dd5565b840191505092915050565b6000602082019050818103600083015261106b8184611018565b905092915050565b60006020828403121561108957611088610dc1565b5b600082013567ffffffffffffffff8111156110a7576110a6610dc6565b5b6110b384828501610ee3565b91505092915050565b600081519050919050565b600082825260208201905092915050565b6000819050602082019050919050565b600082825260208201905092915050565b600061110482610fd2565b61110e81856110e8565b935061111e818560208601610fee565b61112781610dd5565b840191505092915050565b61113b81610f11565b82525050565b7f4e487b7100000000000000000000000000000000000000000000000000000000600052602160045260246000fd5b6005811061118157611180611141565b5b50565b600081905061119282611170565b919050565b60006111a282611184565b9050919050565b6111b281611197565b82525050565b600060e0830160008301516111d06000860182610d03565b5060208301516111e36020860182610d03565b50604083015184820360408601526111fb82826110f9565b9150506060830151848203606086015261121582826110f9565b915050608083015161122a6080860182611132565b5060a083015161123d60a0860182611132565b5060c083015161125060c08601826111a9565b508091505092915050565b600061126783836111b8565b905092915050565b6000602082019050919050565b6000611287826110bc565b61129181856110c7565b9350836020820285016112a3856110d8565b8060005b858110156112df57848403895281516112c0858261125b565b94506112cb8361126f565b925060208a019950506001810190506112a7565b50829750879550505050505092915050565b6000602082019050818103600083015261130b818461127c565b905092915050565b61131c81610cf1565b811461132757600080fd5b50565b60008135905061133981611313565b92915050565b60006020828403121561135557611354610dc1565b5b60006113638482850161132a565b91505092915050565b61137581610cf1565b82525050565b61138481610f11565b82525050565b61139381611197565b82525050565b600060e0820190506113ae600083018a61136c565b6113bb602083018961136c565b81810360408301526113cd8188611018565b905081810360608301526113e18187611018565b90506113f0608083018661137b565b6113fd60a083018561137b565b61140a60c083018461138a565b98975050505050505050565b60008160601b9050919050565b600061142e82611416565b9050919050565b600061144082611423565b9050919050565b61145861145382610cf1565b611435565b82525050565b6000819050919050565b61147961147482610f11565b61145e565b82525050565b600061148b8285611447565b60148201915061149b8284611468565b6020820191508190509392505050565b600081519050919050565b600081905092915050565b60006114cc826114ab565b6114d681856114b6565b93506114e6818560208601610fee565b80840191505092915050565b60006114fe82846114c1565b915081905092915050565b6000819050919050565b61151c81611509565b811461152757600080fd5b50565b60008151905061153981611513565b92915050565b60006020828403121561155557611554610dc1565b5b60006115638482850161152a565b91505092915050565b7f4e487b7100000000000000000000000000000000000000000000000000000000600052602260045260246000fd5b600060028204905060018216806115b357607f821691505b6020821081036115c6576115c561156c565b5b50919050565b60008190508160005260206000209050919050565b60006020601f8301049050919050565b600082821b905092915050565b60006008830261162e7fffffffffffffffffffffffffffffffffffffffffffffffffffffffffffffffff826115f1565b61163886836115f1565b95508019841693508086168417925050509392505050565b6000819050919050565b600061167561167061166b84610f11565b611650565b610f11565b9050919050565b6000819050919050565b61168f8361165a565b6116a361169b8261167c565b8484546115fe565b825550505050565b600090565b6116b86116ab565b6116c3818484611686565b505050565b5b818110156116e7576116dc6000826116b0565b6001810190506116c9565b5050565b601f82111561172c576116fd816115cc565b611706846115e1565b81016020851015611715578190505b611729611721856115e1565b8301826116c8565b50505b505050565b600082821c905092915050565b600061174f60001984600802611731565b1980831691505092915050565b6000611768838361173e565b9150826002028217905092915050565b61178182610fd2565b67ffffffffffffffff81111561179a57611799610de6565b5b6117a4825461159b565b6117af8282856116eb565b600060209050601f8311600181146117e257600084156117d0578287015190505b6117da858261175c565b865550611842565b601f1984166117f0866115cc565b60005b82811015611818578489015182556001820191506020850194506020810190506117f3565b868310156118355784890151611831601f89168261173e565b8355505b6001600288020188555050505b50505050505056fea2646970667358221220eff2f1f4d694d24fc42bad22dd6e64c96f2b906ef82d695811e9f41a92a36c5664736f6c63430008110033",
  "immutableReferences": {},
  "source": "//SPDX-License-Identifier: MIT\r\n\r\npragma solidity >=0.7.0 <0.9.0;\r\nenum ProductState {\r\n    SETTING,\r\n    PROCESSING,\r\n    FINISH,\r\n    IN_TRANSIT,\r\n    ARRIVED\r\n}\r\n\r\ncontract SupplyChain {\r\n    struct Product {\r\n        address Manufacturer;\r\n        address ProductID;\r\n        string ProductName;\r\n        string ProductType;\r\n        uint ProductPrice;\r\n        uint TimeStamp;\r\n        ProductState state;\r\n    }\r\n    mapping(address => Product) myproduct;\r\n    address[] ProductAddresses;\r\n    Product[] products;\r\n    string Manufacturer_Address;\r\n\r\n    function createProduct(\r\n        string memory _ProductName,\r\n        string memory _ProductType,\r\n        uint _ProductPrice\r\n    ) public {\r\n        address addr = address(\r\n            bytes20(sha256(abi.encodePacked(msg.sender, block.timestamp)))\r\n        );\r\n        myproduct[addr].Manufacturer = msg.sender;\r\n        myproduct[addr].ProductID = addr;\r\n        myproduct[addr].ProductName = _ProductName;\r\n        myproduct[addr].ProductType = _ProductType;\r\n        myproduct[addr].ProductPrice = _ProductPrice;\r\n        myproduct[addr].TimeStamp = block.timestamp;\r\n        myproduct[addr].state = ProductState.SETTING;\r\n\r\n        ProductAddresses.push(addr);\r\n        products.push(\r\n            Product(\r\n                msg.sender,\r\n                addr,\r\n                _ProductName,\r\n                _ProductType,\r\n                _ProductPrice,\r\n                block.timestamp,\r\n                ProductState.SETTING\r\n            )\r\n        );\r\n    }\r\n\r\n    function enterAddress(string memory _Manufacturer_Address) public {\r\n     Manufacturer_Address = _Manufacturer_Address;\r\n     }\r\n    function getManufacturerAddress() public view returns (string memory) {\r\n        return Manufacturer_Address;\r\n    }\r\n\r\n    function getAllProductAddr() external view returns (address[] memory) {\r\n        return ProductAddresses;\r\n    }\r\n\r\n    function getAllProduct() public view returns (Product[] memory) {\r\n        return products;\r\n    }\r\n\r\n    function getProduct(\r\n        address id\r\n    )\r\n        public\r\n        view\r\n        returns (\r\n            address _Manufacturer,\r\n            address adrr,\r\n            string memory _ProductName,\r\n            string memory _ProductType,\r\n            uint _ProductPrice,\r\n            uint _TimeStamp,\r\n            ProductState _state\r\n        )\r\n    {\r\n        Product memory p = myproduct[id];\r\n\r\n        return (\r\n            p.Manufacturer,\r\n            p.ProductID,\r\n            p.ProductName,\r\n            p.ProductType,\r\n            p.ProductPrice,\r\n            p.TimeStamp,\r\n            p.state\r\n        );\r\n    }\r\n}\r\n",
  "sourcePath": "C:\\Users\\lulu\\final_supplychain\\truffle_connect_web3\\contracts\\supplychain.sol",
  "compiler": {
    "name": "solc",
    "version": "0.8.17+commit.8df45f5f.Emscripten.clang"
  },
  "schemaVersion": "3.4.14",
  "updatedAt": "2023-08-10T06:47:30.673Z",
  "networkType": "ethereum",
  "devdoc": {
    "kind": "dev",
    "methods": {},
    "version": 1
  },
  "userdoc": {
    "kind": "user",
    "methods": {},
    "version": 1
  }
}