{
  "contractName": "SupplyChain",
  "abi": [
    {
      "inputs": [
        {
          "internalType": "address",
          "name": "_addr",
          "type": "address"
        },
        {
          "internalType": "string",
          "name": "_supplier",
          "type": "string"
        }
      ],
      "name": "AddSupplier",
      "outputs": [],
      "stateMutability": "nonpayable",
      "type": "function"
    },
    {
      "inputs": [],
      "name": "getSupplier",
      "outputs": [
        {
          "components": [
            {
              "internalType": "address",
              "name": "_product",
              "type": "address"
            },
            {
              "internalType": "string",
              "name": "Supply",
              "type": "string"
            }
          ],
          "internalType": "struct SupplyChain.Supplier[]",
          "name": "",
          "type": "tuple[]"
        }
      ],
      "stateMutability": "view",
      "type": "function",
      "constant": true
    },
    {
      "inputs": [
        {
          "internalType": "string",
          "name": "_Manufacturer_Address",
          "type": "string"
        }
      ],
      "name": "enterAddress",
      "outputs": [],
      "stateMutability": "nonpayable",
      "type": "function"
    },
    {
      "inputs": [],
      "name": "getManufacturerAddress",
      "outputs": [
        {
          "internalType": "string",
          "name": "",
          "type": "string"
        }
      ],
      "stateMutability": "view",
      "type": "function",
      "constant": true
    },
    {
      "inputs": [
        {
          "internalType": "string",
          "name": "_ProductName",
          "type": "string"
        },
        {
          "internalType": "string",
          "name": "_ProductType",
          "type": "string"
        },
        {
          "internalType": "uint256",
          "name": "_ProductPrice",
          "type": "uint256"
        },
        {
          "internalType": "address",
          "name": "_Receiver",
          "type": "address"
        }
      ],
      "name": "createProduct",
      "outputs": [],
      "stateMutability": "nonpayable",
      "type": "function"
    },
    {
      "inputs": [
        {
          "internalType": "address",
          "name": "addr",
          "type": "address"
        }
      ],
      "name": "ChangeState",
      "outputs": [],
      "stateMutability": "nonpayable",
      "type": "function"
    },
    {
      "inputs": [],
      "name": "getAllProductAddr",
      "outputs": [
        {
          "internalType": "address[]",
          "name": "",
          "type": "address[]"
        }
      ],
      "stateMutability": "view",
      "type": "function",
      "constant": true
    },
    {
      "inputs": [],
      "name": "getAllProduct",
      "outputs": [
        {
          "components": [
            {
              "internalType": "uint256",
              "name": "Serial",
              "type": "uint256"
            },
            {
              "internalType": "address",
              "name": "Manufacturer",
              "type": "address"
            },
            {
              "internalType": "address",
              "name": "ProductID",
              "type": "address"
            },
            {
              "internalType": "address",
              "name": "Receiver",
              "type": "address"
            },
            {
              "internalType": "string",
              "name": "ProductName",
              "type": "string"
            },
            {
              "internalType": "string",
              "name": "ProductType",
              "type": "string"
            },
            {
              "internalType": "uint256",
              "name": "ProductPrice",
              "type": "uint256"
            },
            {
              "internalType": "uint256",
              "name": "TimeStamp",
              "type": "uint256"
            },
            {
              "internalType": "string",
              "name": "State",
              "type": "string"
            }
          ],
          "internalType": "struct SupplyChain.ProductDetail[]",
          "name": "",
          "type": "tuple[]"
        }
      ],
      "stateMutability": "view",
      "type": "function",
      "constant": true
    },
    {
      "inputs": [
        {
          "internalType": "address",
          "name": "id",
          "type": "address"
        }
      ],
      "name": "getProductState",
      "outputs": [
        {
          "internalType": "uint256",
          "name": "",
          "type": "uint256"
        },
        {
          "internalType": "uint256",
          "name": "",
          "type": "uint256"
        },
        {
          "internalType": "uint256",
          "name": "",
          "type": "uint256"
        },
        {
          "internalType": "uint256",
          "name": "",
          "type": "uint256"
        },
        {
          "internalType": "uint256",
          "name": "",
          "type": "uint256"
        }
      ],
      "stateMutability": "view",
      "type": "function",
      "constant": true
    },
    {
      "inputs": [
        {
          "internalType": "address",
          "name": "id",
          "type": "address"
        }
      ],
      "name": "getProduct",
      "outputs": [
        {
          "internalType": "uint256",
          "name": "",
          "type": "uint256"
        },
        {
          "internalType": "address",
          "name": "",
          "type": "address"
        },
        {
          "internalType": "address",
          "name": "",
          "type": "address"
        },
        {
          "internalType": "address",
          "name": "",
          "type": "address"
        },
        {
          "internalType": "string",
          "name": "",
          "type": "string"
        },
        {
          "internalType": "string",
          "name": "",
          "type": "string"
        },
        {
          "internalType": "uint256",
          "name": "",
          "type": "uint256"
        },
        {
          "internalType": "uint256",
          "name": "",
          "type": "uint256"
        },
        {
          "internalType": "string",
          "name": "",
          "type": "string"
        }
      ],
      "stateMutability": "view",
      "type": "function",
      "constant": true
    },
    {
      "inputs": [
        {
          "internalType": "address",
          "name": "id",
          "type": "address"
        }
      ],
      "name": "Delete",
      "outputs": [],
      "stateMutability": "nonpayable",
      "type": "function"
    },
    {
      "inputs": [],
      "name": "N_Product",
      "outputs": [
        {
          "components": [
            {
              "internalType": "uint256",
              "name": "Serial",
              "type": "uint256"
            },
            {
              "internalType": "address",
              "name": "Manufacturer",
              "type": "address"
            },
            {
              "internalType": "address",
              "name": "ProductID",
              "type": "address"
            },
            {
              "internalType": "address",
              "name": "Receiver",
              "type": "address"
            },
            {
              "internalType": "string",
              "name": "ProductName",
              "type": "string"
            },
            {
              "internalType": "string",
              "name": "ProductType",
              "type": "string"
            },
            {
              "internalType": "uint256",
              "name": "ProductPrice",
              "type": "uint256"
            },
            {
              "internalType": "uint256",
              "name": "TimeStamp",
              "type": "uint256"
            },
            {
              "internalType": "string",
              "name": "State",
              "type": "string"
            }
          ],
          "internalType": "struct SupplyChain.ProductDetail[]",
          "name": "",
          "type": "tuple[]"
        }
      ],
      "stateMutability": "view",
      "type": "function",
      "constant": true
    }
  ],
  "bytecode": "0x608060405234801561001057600080fd5b50615fb780620000216000396000f3fe608060405234801561001057600080fd5b50600436106100b45760003560e01c8063b9f46c9611610071578063b9f46c961461017f578063bd03adf01461019b578063c305f340146101b9578063d03a4dcd146101d5578063d055a75f146101f1578063d9aba9ce1461020f576100b4565b806308071e6d146100b957806323300ca4146100ed5780634f77df2a1461010b5780638319f760146101275780638462ca1214610145578063ab66859814610163575b600080fd5b6100d360048036038101906100ce91906153af565b610247565b6040516100e49594939291906153f5565b60405180910390f35b6100f5610414565b60405161010291906155ef565b60405180910390f35b610125600480360381019061012091906153af565b61055b565b005b61012f6131c5565b60405161013c91906156c0565b60405180910390f35b61014d613253565b60405161015a9190615886565b60405180910390f35b61017d60048036038101906101789190615a09565b613589565b005b61019960048036038101906101949190615aa8565b614474565b005b6101a3614534565b6040516101b09190615b4e565b60405180910390f35b6101d360048036038101906101ce9190615b70565b6145c6565b005b6101ef60048036038101906101ea91906153af565b6145e0565b005b6101f96149a2565b6040516102069190615886565b60405180910390f35b610229600480360381019061022491906153af565b614cd8565b60405161023e99989796959493929190615bc8565b60405180910390f35b60008060008060008060008773ffffffffffffffffffffffffffffffffffffffff1673ffffffffffffffffffffffffffffffffffffffff1681526020019081526020016000206007016000808152602001908152602001600020600001546000808873ffffffffffffffffffffffffffffffffffffffff1673ffffffffffffffffffffffffffffffffffffffff168152602001908152602001600020600701600060018152602001908152602001600020600001546000808973ffffffffffffffffffffffffffffffffffffffff1673ffffffffffffffffffffffffffffffffffffffff168152602001908152602001600020600701600060028152602001908152602001600020600001546000808a73ffffffffffffffffffffffffffffffffffffffff1673ffffffffffffffffffffffffffffffffffffffff168152602001908152602001600020600701600060038152602001908152602001600020600001546000808b73ffffffffffffffffffffffffffffffffffffffff1673ffffffffffffffffffffffffffffffffffffffff168152602001908152602001600020600701600060048152602001908152602001600020600001549450945094509450945091939590929450565b60606005805480602002602001604051908101604052809291908181526020016000905b8282101561055257838290600052602060002090600202016040518060400160405290816000820160009054906101000a900473ffffffffffffffffffffffffffffffffffffffff1673ffffffffffffffffffffffffffffffffffffffff1673ffffffffffffffffffffffffffffffffffffffff1681526020016001820180546104c190615c99565b80601f01602080910402602001604051908101604052809291908181526020018280546104ed90615c99565b801561053a5780601f1061050f5761010080835404028352916020019161053a565b820191906000526020600020905b81548152906001019060200180831161051d57829003601f168201915b50505050508152505081526020019060010190610438565b50505050905090565b6000808273ffffffffffffffffffffffffffffffffffffffff1673ffffffffffffffffffffffffffffffffffffffff16815260200190815260200160002060000160008154809291906105ad90615cfa565b919050555060016000808373ffffffffffffffffffffffffffffffffffffffff1673ffffffffffffffffffffffffffffffffffffffff1681526020019081526020016000206000015414156110b657600060405180604001604052804281526020016040518060400160405280600781526020017f50524f43455353000000000000000000000000000000000000000000000000008152508152509050806000808473ffffffffffffffffffffffffffffffffffffffff1673ffffffffffffffffffffffffffffffffffffffff16815260200190815260200160002060070160008060008673ffffffffffffffffffffffffffffffffffffffff1673ffffffffffffffffffffffffffffffffffffffff1681526020019081526020016000206000015481526020019081526020016000206000820151816000015560208201518160010190805190602001906107049291906151cd565b50905050426000808473ffffffffffffffffffffffffffffffffffffffff1673ffffffffffffffffffffffffffffffffffffffff1681526020019081526020016000206007016000600181526020019081526020016000206000018190555061076c826145e0565b60016040518061012001604052806000808673ffffffffffffffffffffffffffffffffffffffff1673ffffffffffffffffffffffffffffffffffffffff1681526020019081526020016000206000015481526020013373ffffffffffffffffffffffffffffffffffffffff1681526020018473ffffffffffffffffffffffffffffffffffffffff1681526020016000808673ffffffffffffffffffffffffffffffffffffffff1673ffffffffffffffffffffffffffffffffffffffff16815260200190815260200160002060030160009054906101000a900473ffffffffffffffffffffffffffffffffffffffff1673ffffffffffffffffffffffffffffffffffffffff1681526020016000808673ffffffffffffffffffffffffffffffffffffffff1673ffffffffffffffffffffffffffffffffffffffff16815260200190815260200160002060040180546108c290615c99565b80601f01602080910402602001604051908101604052809291908181526020018280546108ee90615c99565b801561093b5780601f106109105761010080835404028352916020019161093b565b820191906000526020600020905b81548152906001019060200180831161091e57829003601f168201915b505050505081526020016000808673ffffffffffffffffffffffffffffffffffffffff1673ffffffffffffffffffffffffffffffffffffffff168152602001908152602001600020600501805461099190615c99565b80601f01602080910402602001604051908101604052809291908181526020018280546109bd90615c99565b8015610a0a5780601f106109df57610100808354040283529160200191610a0a565b820191906000526020600020905b8154815290600101906020018083116109ed57829003601f168201915b505050505081526020016000808673ffffffffffffffffffffffffffffffffffffffff1673ffffffffffffffffffffffffffffffffffffffff1681526020019081526020016000206006015481526020014281526020016040518060400160405280600781526020017f50524f434553530000000000000000000000000000000000000000000000000081525081525090806001815401808255809150506001900390600052602060002090600902016000909190919091506000820151816000015560208201518160010160006101000a81548173ffffffffffffffffffffffffffffffffffffffff021916908373ffffffffffffffffffffffffffffffffffffffff16021790555060408201518160020160006101000a81548173ffffffffffffffffffffffffffffffffffffffff021916908373ffffffffffffffffffffffffffffffffffffffff16021790555060608201518160030160006101000a81548173ffffffffffffffffffffffffffffffffffffffff021916908373ffffffffffffffffffffffffffffffffffffffff1602179055506080820151816004019080519060200190610bbe9291906151cd565b5060a0820151816005019080519060200190610bdb9291906151cd565b5060c0820151816006015560e08201518160070155610100820151816008019080519060200190610c0d9291906151cd565b50505060046040518061012001604052806000808673ffffffffffffffffffffffffffffffffffffffff1673ffffffffffffffffffffffffffffffffffffffff1681526020019081526020016000206000015481526020013373ffffffffffffffffffffffffffffffffffffffff1681526020018473ffffffffffffffffffffffffffffffffffffffff1681526020016000808673ffffffffffffffffffffffffffffffffffffffff1673ffffffffffffffffffffffffffffffffffffffff16815260200190815260200160002060030160009054906101000a900473ffffffffffffffffffffffffffffffffffffffff1673ffffffffffffffffffffffffffffffffffffffff1681526020016000808673ffffffffffffffffffffffffffffffffffffffff1673ffffffffffffffffffffffffffffffffffffffff1681526020019081526020016000206004018054610d6690615c99565b80601f0160208091040260200160405190810160405280929190818152602001828054610d9290615c99565b8015610ddf5780601f10610db457610100808354040283529160200191610ddf565b820191906000526020600020905b815481529060010190602001808311610dc257829003601f168201915b505050505081526020016000808673ffffffffffffffffffffffffffffffffffffffff1673ffffffffffffffffffffffffffffffffffffffff1681526020019081526020016000206005018054610e3590615c99565b80601f0160208091040260200160405190810160405280929190818152602001828054610e6190615c99565b8015610eae5780601f10610e8357610100808354040283529160200191610eae565b820191906000526020600020905b815481529060010190602001808311610e9157829003601f168201915b505050505081526020016000808673ffffffffffffffffffffffffffffffffffffffff1673ffffffffffffffffffffffffffffffffffffffff1681526020019081526020016000206006015481526020014281526020016040518060400160405280600781526020017f50524f434553530000000000000000000000000000000000000000000000000081525081525090806001815401808255809150506001900390600052602060002090600902016000909190919091506000820151816000015560208201518160010160006101000a81548173ffffffffffffffffffffffffffffffffffffffff021916908373ffffffffffffffffffffffffffffffffffffffff16021790555060408201518160020160006101000a81548173ffffffffffffffffffffffffffffffffffffffff021916908373ffffffffffffffffffffffffffffffffffffffff16021790555060608201518160030160006101000a81548173ffffffffffffffffffffffffffffffffffffffff021916908373ffffffffffffffffffffffffffffffffffffffff16021790555060808201518160040190805190602001906110629291906151cd565b5060a082015181600501908051906020019061107f9291906151cd565b5060c0820151816006015560e082015181600701556101008201518160080190805190602001906110b19291906151cd565b505050505b60026000808373ffffffffffffffffffffffffffffffffffffffff1673ffffffffffffffffffffffffffffffffffffffff168152602001908152602001600020600001541415611bba57600060405180604001604052804281526020016040518060400160405280600681526020017f46494e49534800000000000000000000000000000000000000000000000000008152508152509050806000808473ffffffffffffffffffffffffffffffffffffffff1673ffffffffffffffffffffffffffffffffffffffff16815260200190815260200160002060070160008060008673ffffffffffffffffffffffffffffffffffffffff1673ffffffffffffffffffffffffffffffffffffffff1681526020019081526020016000206000015481526020019081526020016000206000820151816000015560208201518160010190805190602001906112089291906151cd565b50905050426000808473ffffffffffffffffffffffffffffffffffffffff1673ffffffffffffffffffffffffffffffffffffffff16815260200190815260200160002060070160006002815260200190815260200160002060000181905550611270826145e0565b60016040518061012001604052806000808673ffffffffffffffffffffffffffffffffffffffff1673ffffffffffffffffffffffffffffffffffffffff1681526020019081526020016000206000015481526020013373ffffffffffffffffffffffffffffffffffffffff1681526020018473ffffffffffffffffffffffffffffffffffffffff1681526020016000808673ffffffffffffffffffffffffffffffffffffffff1673ffffffffffffffffffffffffffffffffffffffff16815260200190815260200160002060030160009054906101000a900473ffffffffffffffffffffffffffffffffffffffff1673ffffffffffffffffffffffffffffffffffffffff1681526020016000808673ffffffffffffffffffffffffffffffffffffffff1673ffffffffffffffffffffffffffffffffffffffff16815260200190815260200160002060040180546113c690615c99565b80601f01602080910402602001604051908101604052809291908181526020018280546113f290615c99565b801561143f5780601f106114145761010080835404028352916020019161143f565b820191906000526020600020905b81548152906001019060200180831161142257829003601f168201915b505050505081526020016000808673ffffffffffffffffffffffffffffffffffffffff1673ffffffffffffffffffffffffffffffffffffffff168152602001908152602001600020600501805461149590615c99565b80601f01602080910402602001604051908101604052809291908181526020018280546114c190615c99565b801561150e5780601f106114e35761010080835404028352916020019161150e565b820191906000526020600020905b8154815290600101906020018083116114f157829003601f168201915b505050505081526020016000808673ffffffffffffffffffffffffffffffffffffffff1673ffffffffffffffffffffffffffffffffffffffff1681526020019081526020016000206006015481526020014281526020016040518060400160405280600681526020017f46494e495348000000000000000000000000000000000000000000000000000081525081525090806001815401808255809150506001900390600052602060002090600902016000909190919091506000820151816000015560208201518160010160006101000a81548173ffffffffffffffffffffffffffffffffffffffff021916908373ffffffffffffffffffffffffffffffffffffffff16021790555060408201518160020160006101000a81548173ffffffffffffffffffffffffffffffffffffffff021916908373ffffffffffffffffffffffffffffffffffffffff16021790555060608201518160030160006101000a81548173ffffffffffffffffffffffffffffffffffffffff021916908373ffffffffffffffffffffffffffffffffffffffff16021790555060808201518160040190805190602001906116c29291906151cd565b5060a08201518160050190805190602001906116df9291906151cd565b5060c0820151816006015560e082015181600701556101008201518160080190805190602001906117119291906151cd565b50505060046040518061012001604052806000808673ffffffffffffffffffffffffffffffffffffffff1673ffffffffffffffffffffffffffffffffffffffff1681526020019081526020016000206000015481526020013373ffffffffffffffffffffffffffffffffffffffff1681526020018473ffffffffffffffffffffffffffffffffffffffff1681526020016000808673ffffffffffffffffffffffffffffffffffffffff1673ffffffffffffffffffffffffffffffffffffffff16815260200190815260200160002060030160009054906101000a900473ffffffffffffffffffffffffffffffffffffffff1673ffffffffffffffffffffffffffffffffffffffff1681526020016000808673ffffffffffffffffffffffffffffffffffffffff1673ffffffffffffffffffffffffffffffffffffffff168152602001908152602001600020600401805461186a90615c99565b80601f016020809104026020016040519081016040528092919081815260200182805461189690615c99565b80156118e35780601f106118b8576101008083540402835291602001916118e3565b820191906000526020600020905b8154815290600101906020018083116118c657829003601f168201915b505050505081526020016000808673ffffffffffffffffffffffffffffffffffffffff1673ffffffffffffffffffffffffffffffffffffffff168152602001908152602001600020600501805461193990615c99565b80601f016020809104026020016040519081016040528092919081815260200182805461196590615c99565b80156119b25780601f10611987576101008083540402835291602001916119b2565b820191906000526020600020905b81548152906001019060200180831161199557829003601f168201915b505050505081526020016000808673ffffffffffffffffffffffffffffffffffffffff1673ffffffffffffffffffffffffffffffffffffffff1681526020019081526020016000206006015481526020014281526020016040518060400160405280600681526020017f46494e495348000000000000000000000000000000000000000000000000000081525081525090806001815401808255809150506001900390600052602060002090600902016000909190919091506000820151816000015560208201518160010160006101000a81548173ffffffffffffffffffffffffffffffffffffffff021916908373ffffffffffffffffffffffffffffffffffffffff16021790555060408201518160020160006101000a81548173ffffffffffffffffffffffffffffffffffffffff021916908373ffffffffffffffffffffffffffffffffffffffff16021790555060608201518160030160006101000a81548173ffffffffffffffffffffffffffffffffffffffff021916908373ffffffffffffffffffffffffffffffffffffffff1602179055506080820151816004019080519060200190611b669291906151cd565b5060a0820151816005019080519060200190611b839291906151cd565b5060c0820151816006015560e08201518160070155610100820151816008019080519060200190611bb59291906151cd565b505050505b60036000808373ffffffffffffffffffffffffffffffffffffffff1673ffffffffffffffffffffffffffffffffffffffff1681526020019081526020016000206000015414156126be57600060405180604001604052804281526020016040518060400160405280600a81526020017f494e5f5452414e534954000000000000000000000000000000000000000000008152508152509050806000808473ffffffffffffffffffffffffffffffffffffffff1673ffffffffffffffffffffffffffffffffffffffff16815260200190815260200160002060070160008060008673ffffffffffffffffffffffffffffffffffffffff1673ffffffffffffffffffffffffffffffffffffffff168152602001908152602001600020600001548152602001908152602001600020600082015181600001556020820151816001019080519060200190611d0c9291906151cd565b50905050426000808473ffffffffffffffffffffffffffffffffffffffff1673ffffffffffffffffffffffffffffffffffffffff16815260200190815260200160002060070160006003815260200190815260200160002060000181905550611d74826145e0565b60016040518061012001604052806000808673ffffffffffffffffffffffffffffffffffffffff1673ffffffffffffffffffffffffffffffffffffffff1681526020019081526020016000206000015481526020013373ffffffffffffffffffffffffffffffffffffffff1681526020018473ffffffffffffffffffffffffffffffffffffffff1681526020016000808673ffffffffffffffffffffffffffffffffffffffff1673ffffffffffffffffffffffffffffffffffffffff16815260200190815260200160002060030160009054906101000a900473ffffffffffffffffffffffffffffffffffffffff1673ffffffffffffffffffffffffffffffffffffffff1681526020016000808673ffffffffffffffffffffffffffffffffffffffff1673ffffffffffffffffffffffffffffffffffffffff1681526020019081526020016000206004018054611eca90615c99565b80601f0160208091040260200160405190810160405280929190818152602001828054611ef690615c99565b8015611f435780601f10611f1857610100808354040283529160200191611f43565b820191906000526020600020905b815481529060010190602001808311611f2657829003601f168201915b505050505081526020016000808673ffffffffffffffffffffffffffffffffffffffff1673ffffffffffffffffffffffffffffffffffffffff1681526020019081526020016000206005018054611f9990615c99565b80601f0160208091040260200160405190810160405280929190818152602001828054611fc590615c99565b80156120125780601f10611fe757610100808354040283529160200191612012565b820191906000526020600020905b815481529060010190602001808311611ff557829003601f168201915b505050505081526020016000808673ffffffffffffffffffffffffffffffffffffffff1673ffffffffffffffffffffffffffffffffffffffff1681526020019081526020016000206006015481526020014281526020016040518060400160405280600a81526020017f494e5f5452414e5349540000000000000000000000000000000000000000000081525081525090806001815401808255809150506001900390600052602060002090600902016000909190919091506000820151816000015560208201518160010160006101000a81548173ffffffffffffffffffffffffffffffffffffffff021916908373ffffffffffffffffffffffffffffffffffffffff16021790555060408201518160020160006101000a81548173ffffffffffffffffffffffffffffffffffffffff021916908373ffffffffffffffffffffffffffffffffffffffff16021790555060608201518160030160006101000a81548173ffffffffffffffffffffffffffffffffffffffff021916908373ffffffffffffffffffffffffffffffffffffffff16021790555060808201518160040190805190602001906121c69291906151cd565b5060a08201518160050190805190602001906121e39291906151cd565b5060c0820151816006015560e082015181600701556101008201518160080190805190602001906122159291906151cd565b50505060046040518061012001604052806000808673ffffffffffffffffffffffffffffffffffffffff1673ffffffffffffffffffffffffffffffffffffffff1681526020019081526020016000206000015481526020013373ffffffffffffffffffffffffffffffffffffffff1681526020018473ffffffffffffffffffffffffffffffffffffffff1681526020016000808673ffffffffffffffffffffffffffffffffffffffff1673ffffffffffffffffffffffffffffffffffffffff16815260200190815260200160002060030160009054906101000a900473ffffffffffffffffffffffffffffffffffffffff1673ffffffffffffffffffffffffffffffffffffffff1681526020016000808673ffffffffffffffffffffffffffffffffffffffff1673ffffffffffffffffffffffffffffffffffffffff168152602001908152602001600020600401805461236e90615c99565b80601f016020809104026020016040519081016040528092919081815260200182805461239a90615c99565b80156123e75780601f106123bc576101008083540402835291602001916123e7565b820191906000526020600020905b8154815290600101906020018083116123ca57829003601f168201915b505050505081526020016000808673ffffffffffffffffffffffffffffffffffffffff1673ffffffffffffffffffffffffffffffffffffffff168152602001908152602001600020600501805461243d90615c99565b80601f016020809104026020016040519081016040528092919081815260200182805461246990615c99565b80156124b65780601f1061248b576101008083540402835291602001916124b6565b820191906000526020600020905b81548152906001019060200180831161249957829003601f168201915b505050505081526020016000808673ffffffffffffffffffffffffffffffffffffffff1673ffffffffffffffffffffffffffffffffffffffff1681526020019081526020016000206006015481526020014281526020016040518060400160405280600a81526020017f494e5f5452414e5349540000000000000000000000000000000000000000000081525081525090806001815401808255809150506001900390600052602060002090600902016000909190919091506000820151816000015560208201518160010160006101000a81548173ffffffffffffffffffffffffffffffffffffffff021916908373ffffffffffffffffffffffffffffffffffffffff16021790555060408201518160020160006101000a81548173ffffffffffffffffffffffffffffffffffffffff021916908373ffffffffffffffffffffffffffffffffffffffff16021790555060608201518160030160006101000a81548173ffffffffffffffffffffffffffffffffffffffff021916908373ffffffffffffffffffffffffffffffffffffffff160217905550608082015181600401908051906020019061266a9291906151cd565b5060a08201518160050190805190602001906126879291906151cd565b5060c0820151816006015560e082015181600701556101008201518160080190805190602001906126b99291906151cd565b505050505b60046000808373ffffffffffffffffffffffffffffffffffffffff1673ffffffffffffffffffffffffffffffffffffffff1681526020019081526020016000206000015414156131c257600060405180604001604052804281526020016040518060400160405280600781526020017f41525249564544000000000000000000000000000000000000000000000000008152508152509050806000808473ffffffffffffffffffffffffffffffffffffffff1673ffffffffffffffffffffffffffffffffffffffff16815260200190815260200160002060070160008060008673ffffffffffffffffffffffffffffffffffffffff1673ffffffffffffffffffffffffffffffffffffffff1681526020019081526020016000206000015481526020019081526020016000206000820151816000015560208201518160010190805190602001906128109291906151cd565b50905050426000808473ffffffffffffffffffffffffffffffffffffffff1673ffffffffffffffffffffffffffffffffffffffff16815260200190815260200160002060070160006004815260200190815260200160002060000181905550612878826145e0565b60016040518061012001604052806000808673ffffffffffffffffffffffffffffffffffffffff1673ffffffffffffffffffffffffffffffffffffffff1681526020019081526020016000206000015481526020013373ffffffffffffffffffffffffffffffffffffffff1681526020018473ffffffffffffffffffffffffffffffffffffffff1681526020016000808673ffffffffffffffffffffffffffffffffffffffff1673ffffffffffffffffffffffffffffffffffffffff16815260200190815260200160002060030160009054906101000a900473ffffffffffffffffffffffffffffffffffffffff1673ffffffffffffffffffffffffffffffffffffffff1681526020016000808673ffffffffffffffffffffffffffffffffffffffff1673ffffffffffffffffffffffffffffffffffffffff16815260200190815260200160002060040180546129ce90615c99565b80601f01602080910402602001604051908101604052809291908181526020018280546129fa90615c99565b8015612a475780601f10612a1c57610100808354040283529160200191612a47565b820191906000526020600020905b815481529060010190602001808311612a2a57829003601f168201915b505050505081526020016000808673ffffffffffffffffffffffffffffffffffffffff1673ffffffffffffffffffffffffffffffffffffffff1681526020019081526020016000206005018054612a9d90615c99565b80601f0160208091040260200160405190810160405280929190818152602001828054612ac990615c99565b8015612b165780601f10612aeb57610100808354040283529160200191612b16565b820191906000526020600020905b815481529060010190602001808311612af957829003601f168201915b505050505081526020016000808673ffffffffffffffffffffffffffffffffffffffff1673ffffffffffffffffffffffffffffffffffffffff1681526020019081526020016000206006015481526020014281526020016040518060400160405280600781526020017f415252495645440000000000000000000000000000000000000000000000000081525081525090806001815401808255809150506001900390600052602060002090600902016000909190919091506000820151816000015560208201518160010160006101000a81548173ffffffffffffffffffffffffffffffffffffffff021916908373ffffffffffffffffffffffffffffffffffffffff16021790555060408201518160020160006101000a81548173ffffffffffffffffffffffffffffffffffffffff021916908373ffffffffffffffffffffffffffffffffffffffff16021790555060608201518160030160006101000a81548173ffffffffffffffffffffffffffffffffffffffff021916908373ffffffffffffffffffffffffffffffffffffffff1602179055506080820151816004019080519060200190612cca9291906151cd565b5060a0820151816005019080519060200190612ce79291906151cd565b5060c0820151816006015560e08201518160070155610100820151816008019080519060200190612d199291906151cd565b50505060046040518061012001604052806000808673ffffffffffffffffffffffffffffffffffffffff1673ffffffffffffffffffffffffffffffffffffffff1681526020019081526020016000206000015481526020013373ffffffffffffffffffffffffffffffffffffffff1681526020018473ffffffffffffffffffffffffffffffffffffffff1681526020016000808673ffffffffffffffffffffffffffffffffffffffff1673ffffffffffffffffffffffffffffffffffffffff16815260200190815260200160002060030160009054906101000a900473ffffffffffffffffffffffffffffffffffffffff1673ffffffffffffffffffffffffffffffffffffffff1681526020016000808673ffffffffffffffffffffffffffffffffffffffff1673ffffffffffffffffffffffffffffffffffffffff1681526020019081526020016000206004018054612e7290615c99565b80601f0160208091040260200160405190810160405280929190818152602001828054612e9e90615c99565b8015612eeb5780601f10612ec057610100808354040283529160200191612eeb565b820191906000526020600020905b815481529060010190602001808311612ece57829003601f168201915b505050505081526020016000808673ffffffffffffffffffffffffffffffffffffffff1673ffffffffffffffffffffffffffffffffffffffff1681526020019081526020016000206005018054612f4190615c99565b80601f0160208091040260200160405190810160405280929190818152602001828054612f6d90615c99565b8015612fba5780601f10612f8f57610100808354040283529160200191612fba565b820191906000526020600020905b815481529060010190602001808311612f9d57829003601f168201915b505050505081526020016000808673ffffffffffffffffffffffffffffffffffffffff1673ffffffffffffffffffffffffffffffffffffffff1681526020019081526020016000206006015481526020014281526020016040518060400160405280600781526020017f415252495645440000000000000000000000000000000000000000000000000081525081525090806001815401808255809150506001900390600052602060002090600902016000909190919091506000820151816000015560208201518160010160006101000a81548173ffffffffffffffffffffffffffffffffffffffff021916908373ffffffffffffffffffffffffffffffffffffffff16021790555060408201518160020160006101000a81548173ffffffffffffffffffffffffffffffffffffffff021916908373ffffffffffffffffffffffffffffffffffffffff16021790555060608201518160030160006101000a81548173ffffffffffffffffffffffffffffffffffffffff021916908373ffffffffffffffffffffffffffffffffffffffff160217905550608082015181600401908051906020019061316e9291906151cd565b5060a082015181600501908051906020019061318b9291906151cd565b5060c0820151816006015560e082015181600701556101008201518160080190805190602001906131bd9291906151cd565b505050505b50565b6060600280548060200260200160405190810160405280929190818152602001828054801561324957602002820191906000526020600020905b8160009054906101000a900473ffffffffffffffffffffffffffffffffffffffff1673ffffffffffffffffffffffffffffffffffffffff16815260200190600101908083116131ff575b5050505050905090565b60606004805480602002602001604051908101604052809291908181526020016000905b82821015613580578382906000526020600020906009020160405180610120016040529081600082015481526020016001820160009054906101000a900473ffffffffffffffffffffffffffffffffffffffff1673ffffffffffffffffffffffffffffffffffffffff1673ffffffffffffffffffffffffffffffffffffffff1681526020016002820160009054906101000a900473ffffffffffffffffffffffffffffffffffffffff1673ffffffffffffffffffffffffffffffffffffffff1673ffffffffffffffffffffffffffffffffffffffff1681526020016003820160009054906101000a900473ffffffffffffffffffffffffffffffffffffffff1673ffffffffffffffffffffffffffffffffffffffff1673ffffffffffffffffffffffffffffffffffffffff1681526020016004820180546133b790615c99565b80601f01602080910402602001604051908101604052809291908181526020018280546133e390615c99565b80156134305780601f1061340557610100808354040283529160200191613430565b820191906000526020600020905b81548152906001019060200180831161341357829003601f168201915b5050505050815260200160058201805461344990615c99565b80601f016020809104026020016040519081016040528092919081815260200182805461347590615c99565b80156134c25780601f10613497576101008083540402835291602001916134c2565b820191906000526020600020905b8154815290600101906020018083116134a557829003601f168201915b5050505050815260200160068201548152602001600782015481526020016008820180546134ef90615c99565b80601f016020809104026020016040519081016040528092919081815260200182805461351b90615c99565b80156135685780601f1061353d57610100808354040283529160200191613568565b820191906000526020600020905b81548152906001019060200180831161354b57829003601f168201915b50505050508152505081526020019060010190613277565b50505050905090565b6000600233426040516020016135a0929190615dac565b6040516020818303038152906040526040516135bc9190615e1f565b602060405180830381855afa1580156135d9573d6000803e3d6000fd5b5050506040513d601f19601f820116820180604052508101906135fc9190615e6c565b60601c905060008060008373ffffffffffffffffffffffffffffffffffffffff1673ffffffffffffffffffffffffffffffffffffffff16815260200190815260200160002060000181905550336000808373ffffffffffffffffffffffffffffffffffffffff1673ffffffffffffffffffffffffffffffffffffffff16815260200190815260200160002060010160006101000a81548173ffffffffffffffffffffffffffffffffffffffff021916908373ffffffffffffffffffffffffffffffffffffffff160217905550806000808373ffffffffffffffffffffffffffffffffffffffff1673ffffffffffffffffffffffffffffffffffffffff16815260200190815260200160002060020160006101000a81548173ffffffffffffffffffffffffffffffffffffffff021916908373ffffffffffffffffffffffffffffffffffffffff160217905550846000808373ffffffffffffffffffffffffffffffffffffffff1673ffffffffffffffffffffffffffffffffffffffff168152602001908152602001600020600401908051906020019061379d9291906151cd565b50816000808373ffffffffffffffffffffffffffffffffffffffff1673ffffffffffffffffffffffffffffffffffffffff16815260200190815260200160002060030160006101000a81548173ffffffffffffffffffffffffffffffffffffffff021916908373ffffffffffffffffffffffffffffffffffffffff160217905550836000808373ffffffffffffffffffffffffffffffffffffffff1673ffffffffffffffffffffffffffffffffffffffff16815260200190815260200160002060050190805190602001906138739291906151cd565b50826000808373ffffffffffffffffffffffffffffffffffffffff1673ffffffffffffffffffffffffffffffffffffffff16815260200190815260200160002060060181905550600060405180604001604052804281526020016040518060400160405280600781526020017f53454554494e47000000000000000000000000000000000000000000000000008152508152509050806000808473ffffffffffffffffffffffffffffffffffffffff1673ffffffffffffffffffffffffffffffffffffffff16815260200190815260200160002060070160008060008673ffffffffffffffffffffffffffffffffffffffff1673ffffffffffffffffffffffffffffffffffffffff1681526020019081526020016000206000015481526020019081526020016000206000820151816000015560208201518160010190805190602001906139c29291906151cd565b5090505060008060008473ffffffffffffffffffffffffffffffffffffffff1673ffffffffffffffffffffffffffffffffffffffff1681526020019081526020016000206007016000600181526020019081526020016000206000018190555060008060008473ffffffffffffffffffffffffffffffffffffffff1673ffffffffffffffffffffffffffffffffffffffff1681526020019081526020016000206007016000600281526020019081526020016000206000018190555060008060008473ffffffffffffffffffffffffffffffffffffffff1673ffffffffffffffffffffffffffffffffffffffff1681526020019081526020016000206007016000600381526020019081526020016000206000018190555060008060008473ffffffffffffffffffffffffffffffffffffffff1673ffffffffffffffffffffffffffffffffffffffff168152602001908152602001600020600701600060048152602001908152602001600020600001819055506002829080600181540180825580915050600190039060005260206000200160009091909190916101000a81548173ffffffffffffffffffffffffffffffffffffffff021916908373ffffffffffffffffffffffffffffffffffffffff16021790555060016040518061012001604052806000808673ffffffffffffffffffffffffffffffffffffffff1673ffffffffffffffffffffffffffffffffffffffff1681526020019081526020016000206000015481526020013373ffffffffffffffffffffffffffffffffffffffff1681526020018473ffffffffffffffffffffffffffffffffffffffff1681526020018573ffffffffffffffffffffffffffffffffffffffff1681526020018881526020018781526020018681526020014281526020016040518060400160405280600781526020017f53454554494e470000000000000000000000000000000000000000000000000081525081525090806001815401808255809150506001900390600052602060002090600902016000909190919091506000820151816000015560208201518160010160006101000a81548173ffffffffffffffffffffffffffffffffffffffff021916908373ffffffffffffffffffffffffffffffffffffffff16021790555060408201518160020160006101000a81548173ffffffffffffffffffffffffffffffffffffffff021916908373ffffffffffffffffffffffffffffffffffffffff16021790555060608201518160030160006101000a81548173ffffffffffffffffffffffffffffffffffffffff021916908373ffffffffffffffffffffffffffffffffffffffff1602179055506080820151816004019080519060200190613db79291906151cd565b5060a0820151816005019080519060200190613dd49291906151cd565b5060c0820151816006015560e08201518160070155610100820151816008019080519060200190613e069291906151cd565b50505060046040518061012001604052806000808673ffffffffffffffffffffffffffffffffffffffff1673ffffffffffffffffffffffffffffffffffffffff1681526020019081526020016000206000015481526020016000808673ffffffffffffffffffffffffffffffffffffffff1673ffffffffffffffffffffffffffffffffffffffff16815260200190815260200160002060010160009054906101000a900473ffffffffffffffffffffffffffffffffffffffff1673ffffffffffffffffffffffffffffffffffffffff1681526020016000808673ffffffffffffffffffffffffffffffffffffffff1673ffffffffffffffffffffffffffffffffffffffff16815260200190815260200160002060020160009054906101000a900473ffffffffffffffffffffffffffffffffffffffff1673ffffffffffffffffffffffffffffffffffffffff1681526020016000808673ffffffffffffffffffffffffffffffffffffffff1673ffffffffffffffffffffffffffffffffffffffff16815260200190815260200160002060030160009054906101000a900473ffffffffffffffffffffffffffffffffffffffff1673ffffffffffffffffffffffffffffffffffffffff1681526020016000808673ffffffffffffffffffffffffffffffffffffffff1673ffffffffffffffffffffffffffffffffffffffff168152602001908152602001600020600401805461402190615c99565b80601f016020809104026020016040519081016040528092919081815260200182805461404d90615c99565b801561409a5780601f1061406f5761010080835404028352916020019161409a565b820191906000526020600020905b81548152906001019060200180831161407d57829003601f168201915b505050505081526020016000808673ffffffffffffffffffffffffffffffffffffffff1673ffffffffffffffffffffffffffffffffffffffff16815260200190815260200160002060050180546140f090615c99565b80601f016020809104026020016040519081016040528092919081815260200182805461411c90615c99565b80156141695780601f1061413e57610100808354040283529160200191614169565b820191906000526020600020905b81548152906001019060200180831161414c57829003601f168201915b505050505081526020016000808673ffffffffffffffffffffffffffffffffffffffff1673ffffffffffffffffffffffffffffffffffffffff1681526020019081526020016000206006015481526020016000808673ffffffffffffffffffffffffffffffffffffffff1673ffffffffffffffffffffffffffffffffffffffff16815260200190815260200160002060070160008081526020019081526020016000206000015481526020016000808673ffffffffffffffffffffffffffffffffffffffff1673ffffffffffffffffffffffffffffffffffffffff1681526020019081526020016000206007016000808152602001908152602001600020600101805461427590615c99565b80601f01602080910402602001604051908101604052809291908181526020018280546142a190615c99565b80156142ee5780601f106142c3576101008083540402835291602001916142ee565b820191906000526020600020905b8154815290600101906020018083116142d157829003601f168201915b505050505081525090806001815401808255809150506001900390600052602060002090600902016000909190919091506000820151816000015560208201518160010160006101000a81548173ffffffffffffffffffffffffffffffffffffffff021916908373ffffffffffffffffffffffffffffffffffffffff16021790555060408201518160020160006101000a81548173ffffffffffffffffffffffffffffffffffffffff021916908373ffffffffffffffffffffffffffffffffffffffff16021790555060608201518160030160006101000a81548173ffffffffffffffffffffffffffffffffffffffff021916908373ffffffffffffffffffffffffffffffffffffffff160217905550608082015181600401908051906020019061441a9291906151cd565b5060a08201518160050190805190602001906144379291906151cd565b5060c0820151816006015560e082015181600701556101008201518160080190805190602001906144699291906151cd565b505050505050505050565b600560405180604001604052808473ffffffffffffffffffffffffffffffffffffffff16815260200183815250908060018154018082558091505060019003906000526020600020906002020160009091909190915060008201518160000160006101000a81548173ffffffffffffffffffffffffffffffffffffffff021916908373ffffffffffffffffffffffffffffffffffffffff160217905550602082015181600101908051906020019061452d9291906151cd565b5050505050565b60606003805461454390615c99565b80601f016020809104026020016040519081016040528092919081815260200182805461456f90615c99565b80156145bc5780601f10614591576101008083540402835291602001916145bc565b820191906000526020600020905b81548152906001019060200180831161459f57829003601f168201915b5050505050905090565b80600390805190602001906145dc9291906151cd565b5050565b60005b60048054905081101561499e578173ffffffffffffffffffffffffffffffffffffffff166004828154811061461b5761461a615e99565b5b906000526020600020906009020160020160009054906101000a900473ffffffffffffffffffffffffffffffffffffffff1673ffffffffffffffffffffffffffffffffffffffff16141561498b5760008190505b60016004805490506146819190615ec8565b8110156148a15760046001826146979190615efc565b815481106146a8576146a7615e99565b5b9060005260206000209060090201600482815481106146ca576146c9615e99565b5b9060005260206000209060090201600082015481600001556001820160009054906101000a900473ffffffffffffffffffffffffffffffffffffffff168160010160006101000a81548173ffffffffffffffffffffffffffffffffffffffff021916908373ffffffffffffffffffffffffffffffffffffffff1602179055506002820160009054906101000a900473ffffffffffffffffffffffffffffffffffffffff168160020160006101000a81548173ffffffffffffffffffffffffffffffffffffffff021916908373ffffffffffffffffffffffffffffffffffffffff1602179055506003820160009054906101000a900473ffffffffffffffffffffffffffffffffffffffff168160030160006101000a81548173ffffffffffffffffffffffffffffffffffffffff021916908373ffffffffffffffffffffffffffffffffffffffff160217905550600482018160040190805461482b90615c99565b614836929190615253565b50600582018160050190805461484b90615c99565b614856929190615253565b506006820154816006015560078201548160070155600882018160080190805461487f90615c99565b61488a929190615253565b50905050808061489990615cfa565b91505061466f565b5060048054806148b4576148b3615f52565b5b60019003818190600052602060002090600902016000808201600090556001820160006101000a81549073ffffffffffffffffffffffffffffffffffffffff02191690556002820160006101000a81549073ffffffffffffffffffffffffffffffffffffffff02191690556003820160006101000a81549073ffffffffffffffffffffffffffffffffffffffff021916905560048201600061495691906152e0565b60058201600061496691906152e0565b6006820160009055600782016000905560088201600061498691906152e0565b505090555b808061499690615cfa565b9150506145e3565b5050565b60606001805480602002602001604051908101604052809291908181526020016000905b82821015614ccf578382906000526020600020906009020160405180610120016040529081600082015481526020016001820160009054906101000a900473ffffffffffffffffffffffffffffffffffffffff1673ffffffffffffffffffffffffffffffffffffffff1673ffffffffffffffffffffffffffffffffffffffff1681526020016002820160009054906101000a900473ffffffffffffffffffffffffffffffffffffffff1673ffffffffffffffffffffffffffffffffffffffff1673ffffffffffffffffffffffffffffffffffffffff1681526020016003820160009054906101000a900473ffffffffffffffffffffffffffffffffffffffff1673ffffffffffffffffffffffffffffffffffffffff1673ffffffffffffffffffffffffffffffffffffffff168152602001600482018054614b0690615c99565b80601f0160208091040260200160405190810160405280929190818152602001828054614b3290615c99565b8015614b7f5780601f10614b5457610100808354040283529160200191614b7f565b820191906000526020600020905b815481529060010190602001808311614b6257829003601f168201915b50505050508152602001600582018054614b9890615c99565b80601f0160208091040260200160405190810160405280929190818152602001828054614bc490615c99565b8015614c115780601f10614be657610100808354040283529160200191614c11565b820191906000526020600020905b815481529060010190602001808311614bf457829003601f168201915b505050505081526020016006820154815260200160078201548152602001600882018054614c3e90615c99565b80601f0160208091040260200160405190810160405280929190818152602001828054614c6a90615c99565b8015614cb75780601f10614c8c57610100808354040283529160200191614cb7565b820191906000526020600020905b815481529060010190602001808311614c9a57829003601f168201915b505050505081525050815260200190600101906149c6565b50505050905090565b600080600080606080600080606060008060008c73ffffffffffffffffffffffffffffffffffffffff1673ffffffffffffffffffffffffffffffffffffffff16815260200190815260200160002060000154905060008b90506000808d73ffffffffffffffffffffffffffffffffffffffff1673ffffffffffffffffffffffffffffffffffffffff168152602001908152602001600020600001546000808e73ffffffffffffffffffffffffffffffffffffffff1673ffffffffffffffffffffffffffffffffffffffff16815260200190815260200160002060010160009054906101000a900473ffffffffffffffffffffffffffffffffffffffff166000808f73ffffffffffffffffffffffffffffffffffffffff1673ffffffffffffffffffffffffffffffffffffffff16815260200190815260200160002060020160009054906101000a900473ffffffffffffffffffffffffffffffffffffffff166000808573ffffffffffffffffffffffffffffffffffffffff1673ffffffffffffffffffffffffffffffffffffffff16815260200190815260200160002060030160009054906101000a900473ffffffffffffffffffffffffffffffffffffffff166000808673ffffffffffffffffffffffffffffffffffffffff1673ffffffffffffffffffffffffffffffffffffffff1681526020019081526020016000206004016000808773ffffffffffffffffffffffffffffffffffffffff1673ffffffffffffffffffffffffffffffffffffffff1681526020019081526020016000206005016000808873ffffffffffffffffffffffffffffffffffffffff1673ffffffffffffffffffffffffffffffffffffffff168152602001908152602001600020600601546000808973ffffffffffffffffffffffffffffffffffffffff1673ffffffffffffffffffffffffffffffffffffffff16815260200190815260200160002060070160008a8152602001908152602001600020600001546000808a73ffffffffffffffffffffffffffffffffffffffff1673ffffffffffffffffffffffffffffffffffffffff16815260200190815260200160002060070160008b815260200190815260200160002060010184805461501490615c99565b80601f016020809104026020016040519081016040528092919081815260200182805461504090615c99565b801561508d5780601f106150625761010080835404028352916020019161508d565b820191906000526020600020905b81548152906001019060200180831161507057829003601f168201915b505050505094508380546150a090615c99565b80601f01602080910402602001604051908101604052809291908181526020018280546150cc90615c99565b80156151195780601f106150ee57610100808354040283529160200191615119565b820191906000526020600020905b8154815290600101906020018083116150fc57829003601f168201915b5050505050935080805461512c90615c99565b80601f016020809104026020016040519081016040528092919081815260200182805461515890615c99565b80156151a55780601f1061517a576101008083540402835291602001916151a5565b820191906000526020600020905b81548152906001019060200180831161518857829003601f168201915b505050505090509a509a509a509a509a509a509a509a509a5050509193959799909294969850565b8280546151d990615c99565b90600052602060002090601f0160209004810192826151fb5760008555615242565b82601f1061521457805160ff1916838001178555615242565b82800160010185558215615242579182015b82811115615241578251825591602001919060010190615226565b5b50905061524f9190615320565b5090565b82805461525f90615c99565b90600052602060002090601f01602090048101928261528157600085556152cf565b82601f1061529257805485556152cf565b828001600101855582156152cf57600052602060002091601f016020900482015b828111156152ce5782548255916001019190600101906152b3565b5b5090506152dc9190615320565b5090565b5080546152ec90615c99565b6000825580601f106152fe575061531d565b601f01602090049060005260206000209081019061531c9190615320565b5b50565b5b80821115615339576000816000905550600101615321565b5090565b6000604051905090565b600080fd5b600080fd5b600073ffffffffffffffffffffffffffffffffffffffff82169050919050565b600061537c82615351565b9050919050565b61538c81615371565b811461539757600080fd5b50565b6000813590506153a981615383565b92915050565b6000602082840312156153c5576153c4615347565b5b60006153d38482850161539a565b91505092915050565b6000819050919050565b6153ef816153dc565b82525050565b600060a08201905061540a60008301886153e6565b61541760208301876153e6565b61542460408301866153e6565b61543160608301856153e6565b61543e60808301846153e6565b9695505050505050565b600081519050919050565b600082825260208201905092915050565b6000819050602082019050919050565b61547d81615371565b82525050565b600081519050919050565b600082825260208201905092915050565b60005b838110156154bd5780820151818401526020810190506154a2565b838111156154cc576000848401525b50505050565b6000601f19601f8301169050919050565b60006154ee82615483565b6154f8818561548e565b935061550881856020860161549f565b615511816154d2565b840191505092915050565b60006040830160008301516155346000860182615474565b506020830151848203602086015261554c82826154e3565b9150508091505092915050565b6000615565838361551c565b905092915050565b6000602082019050919050565b600061558582615448565b61558f8185615453565b9350836020820285016155a185615464565b8060005b858110156155dd57848403895281516155be8582615559565b94506155c98361556d565b925060208a019950506001810190506155a5565b50829750879550505050505092915050565b60006020820190508181036000830152615609818461557a565b905092915050565b600081519050919050565b600082825260208201905092915050565b6000819050602082019050919050565b60006156498383615474565b60208301905092915050565b6000602082019050919050565b600061566d82615611565b615677818561561c565b93506156828361562d565b8060005b838110156156b357815161569a888261563d565b97506156a583615655565b925050600181019050615686565b5085935050505092915050565b600060208201905081810360008301526156da8184615662565b905092915050565b600081519050919050565b600082825260208201905092915050565b6000819050602082019050919050565b615717816153dc565b82525050565b600061012083016000830151615736600086018261570e565b5060208301516157496020860182615474565b50604083015161575c6040860182615474565b50606083015161576f6060860182615474565b506080830151848203608086015261578782826154e3565b91505060a083015184820360a08601526157a182826154e3565b91505060c08301516157b660c086018261570e565b5060e08301516157c960e086018261570e565b506101008301518482036101008601526157e382826154e3565b9150508091505092915050565b60006157fc838361571d565b905092915050565b6000602082019050919050565b600061581c826156e2565b61582681856156ed565b935083602082028501615838856156fe565b8060005b85811015615874578484038952815161585585826157f0565b945061586083615804565b925060208a0199505060018101905061583c565b50829750879550505050505092915050565b600060208201905081810360008301526158a08184615811565b905092915050565b600080fd5b600080fd5b7f4e487b7100000000000000000000000000000000000000000000000000000000600052604160045260246000fd5b6158ea826154d2565b810181811067ffffffffffffffff82111715615909576159086158b2565b5b80604052505050565b600061591c61533d565b905061592882826158e1565b919050565b600067ffffffffffffffff821115615948576159476158b2565b5b615951826154d2565b9050602081019050919050565b82818337600083830152505050565b600061598061597b8461592d565b615912565b90508281526020810184848401111561599c5761599b6158ad565b5b6159a784828561595e565b509392505050565b600082601f8301126159c4576159c36158a8565b5b81356159d484826020860161596d565b91505092915050565b6159e6816153dc565b81146159f157600080fd5b50565b600081359050615a03816159dd565b92915050565b60008060008060808587031215615a2357615a22615347565b5b600085013567ffffffffffffffff811115615a4157615a4061534c565b5b615a4d878288016159af565b945050602085013567ffffffffffffffff811115615a6e57615a6d61534c565b5b615a7a878288016159af565b9350506040615a8b878288016159f4565b9250506060615a9c8782880161539a565b91505092959194509250565b60008060408385031215615abf57615abe615347565b5b6000615acd8582860161539a565b925050602083013567ffffffffffffffff811115615aee57615aed61534c565b5b615afa858286016159af565b9150509250929050565b600082825260208201905092915050565b6000615b2082615483565b615b2a8185615b04565b9350615b3a81856020860161549f565b615b43816154d2565b840191505092915050565b60006020820190508181036000830152615b688184615b15565b905092915050565b600060208284031215615b8657615b85615347565b5b600082013567ffffffffffffffff811115615ba457615ba361534c565b5b615bb0848285016159af565b91505092915050565b615bc281615371565b82525050565b600061012082019050615bde600083018c6153e6565b615beb602083018b615bb9565b615bf8604083018a615bb9565b615c056060830189615bb9565b8181036080830152615c178188615b15565b905081810360a0830152615c2b8187615b15565b9050615c3a60c08301866153e6565b615c4760e08301856153e6565b818103610100830152615c5a8184615b15565b90509a9950505050505050505050565b7f4e487b7100000000000000000000000000000000000000000000000000000000600052602260045260246000fd5b60006002820490506001821680615cb157607f821691505b60208210811415615cc557615cc4615c6a565b5b50919050565b7f4e487b7100000000000000000000000000000000000000000000000000000000600052601160045260246000fd5b6000615d05826153dc565b91507fffffffffffffffffffffffffffffffffffffffffffffffffffffffffffffffff821415615d3857615d37615ccb565b5b600182019050919050565b60008160601b9050919050565b6000615d5b82615d43565b9050919050565b6000615d6d82615d50565b9050919050565b615d85615d8082615371565b615d62565b82525050565b6000819050919050565b615da6615da1826153dc565b615d8b565b82525050565b6000615db88285615d74565b601482019150615dc88284615d95565b6020820191508190509392505050565b600081519050919050565b600081905092915050565b6000615df982615dd8565b615e038185615de3565b9350615e1381856020860161549f565b80840191505092915050565b6000615e2b8284615dee565b915081905092915050565b6000819050919050565b615e4981615e36565b8114615e5457600080fd5b50565b600081519050615e6681615e40565b92915050565b600060208284031215615e8257615e81615347565b5b6000615e9084828501615e57565b91505092915050565b7f4e487b7100000000000000000000000000000000000000000000000000000000600052603260045260246000fd5b6000615ed3826153dc565b9150615ede836153dc565b925082821015615ef157615ef0615ccb565b5b828203905092915050565b6000615f07826153dc565b9150615f12836153dc565b9250827fffffffffffffffffffffffffffffffffffffffffffffffffffffffffffffffff03821115615f4757615f46615ccb565b5b828201905092915050565b7f4e487b7100000000000000000000000000000000000000000000000000000000600052603160045260246000fdfea264697066735822122024f2e577c0111a0b1f92d13cc4ed9fb5715ad3622f13b6e79c09e9d38726a5fe64736f6c634300080a0033",
  "immutableReferences": {},
  "source": "//SPDX-License-Identifier: MIT\r\n\r\npragma solidity >=0.7.0 <0.9.0;\r\n\r\ncontract SupplyChain {\r\n    struct Product {\r\n        uint Serial;\r\n        address Manufacturer;\r\n        address ProductID;\r\n        address Receiver;\r\n        // mapping(uint => Supplier) Supply;\r\n        string ProductName;\r\n        string ProductType;\r\n        uint ProductPrice;\r\n        mapping(uint => StateTime) State;\r\n    }\r\n    struct StateTime {\r\n        uint TimeStamp;\r\n        string State;\r\n    }\r\n    // struct Component{\r\n    //     mapping(uint => Supplier) Supply;\r\n    // }\r\n    struct Supplier {\r\n        address _product;\r\n        string Supply;\r\n    }\r\n\r\n    struct ProductDetail {\r\n        uint Serial;\r\n        address Manufacturer;\r\n        address ProductID;\r\n        address Receiver;\r\n        string ProductName;\r\n        string ProductType;\r\n        uint ProductPrice;\r\n        uint TimeStamp;\r\n        string State;\r\n    }\r\n    // mapping(address => Component) components;\r\n\r\n    mapping(address => Product) myproduct;\r\n    ProductDetail[] products;\r\n    address[] ProductAddresses;\r\n    string Manufacturer_Address;\r\n    ProductDetail[] N_Products;\r\n    Supplier[] suppliers;\r\n\r\n    function AddSupplier(address _addr, string memory _supplier) public {\r\n        // Supplier memory _com = Supplier(_count,_supplier);\r\n        // components[_addr].Supply[_count] = _com;\r\n        suppliers.push(Supplier(_addr, _supplier));\r\n    }\r\n\r\n    function getSupplier() public view returns (Supplier[] memory) {\r\n        return suppliers;\r\n    }\r\n\r\n    function enterAddress(string memory _Manufacturer_Address) public {\r\n        Manufacturer_Address = _Manufacturer_Address;\r\n    }\r\n\r\n    function getManufacturerAddress() public view returns (string memory) {\r\n        return Manufacturer_Address;\r\n    }\r\n\r\n    function createProduct(\r\n        string memory _ProductName,\r\n        string memory _ProductType,\r\n        uint _ProductPrice,\r\n        address _Receiver\r\n    ) public {\r\n        address addr = address(\r\n            bytes20(sha256(abi.encodePacked(msg.sender, block.timestamp)))\r\n        );\r\n        myproduct[addr].Serial = 0;\r\n\r\n        myproduct[addr].Manufacturer = msg.sender;\r\n        myproduct[addr].ProductID = addr;\r\n        myproduct[addr].ProductName = _ProductName;\r\n        myproduct[addr].Receiver = _Receiver;\r\n        // Supplier memory _supply = Supplier(msg.sender);\r\n        // myproduct[addr].Supply[0] = _supply;\r\n\r\n        myproduct[addr].ProductType = _ProductType;\r\n        myproduct[addr].ProductPrice = _ProductPrice;\r\n        StateTime memory _state = StateTime(block.timestamp, \"SEETING\");\r\n        myproduct[addr].State[myproduct[addr].Serial] = _state;\r\n\r\n        myproduct[addr].State[1].TimeStamp = 0;\r\n        myproduct[addr].State[2].TimeStamp = 0;\r\n        myproduct[addr].State[3].TimeStamp = 0;\r\n        myproduct[addr].State[4].TimeStamp = 0;\r\n\r\n        ProductAddresses.push(addr);\r\n        products.push(\r\n            ProductDetail(\r\n                myproduct[addr].Serial,\r\n                msg.sender,\r\n                addr,\r\n                _Receiver,\r\n                _ProductName,\r\n                _ProductType,\r\n                _ProductPrice,\r\n                block.timestamp,\r\n                \"SEETING\"\r\n            )\r\n        );\r\n\r\n        N_Products.push(\r\n            ProductDetail(\r\n                myproduct[addr].Serial,\r\n                myproduct[addr].Manufacturer,\r\n                myproduct[addr].ProductID,\r\n                myproduct[addr].Receiver,\r\n                myproduct[addr].ProductName,\r\n                myproduct[addr].ProductType,\r\n                myproduct[addr].ProductPrice,\r\n                myproduct[addr].State[0].TimeStamp,\r\n                myproduct[addr].State[0].State\r\n            )\r\n        );\r\n    }\r\n\r\n    function ChangeState(address addr) public {\r\n        myproduct[addr].Serial++;\r\n        if (myproduct[addr].Serial == 1) {\r\n            StateTime memory _state = StateTime(block.timestamp, \"PROCESS\");\r\n            myproduct[addr].State[myproduct[addr].Serial] = _state;\r\n            myproduct[addr].State[1].TimeStamp = block.timestamp;\r\n            Delete(addr);\r\n\r\n            products.push(\r\n                ProductDetail(\r\n                    myproduct[addr].Serial,\r\n                    msg.sender,\r\n                    addr,\r\n                    myproduct[addr].Receiver,\r\n                    myproduct[addr].ProductName,\r\n                    myproduct[addr].ProductType,\r\n                    myproduct[addr].ProductPrice,\r\n                    block.timestamp,\r\n                    \"PROCESS\"\r\n                )\r\n            );\r\n\r\n            N_Products.push(\r\n                ProductDetail(\r\n                    myproduct[addr].Serial,\r\n                    msg.sender,\r\n                    addr,\r\n                    myproduct[addr].Receiver,\r\n                    myproduct[addr].ProductName,\r\n                    myproduct[addr].ProductType,\r\n                    myproduct[addr].ProductPrice,\r\n                    block.timestamp,\r\n                    \"PROCESS\"\r\n                )\r\n            );\r\n        }\r\n        if (myproduct[addr].Serial == 2) {\r\n            StateTime memory _state = StateTime(block.timestamp, \"FINISH\");\r\n            myproduct[addr].State[myproduct[addr].Serial] = _state;\r\n            myproduct[addr].State[2].TimeStamp = block.timestamp;\r\n            Delete(addr);\r\n\r\n            products.push(\r\n                ProductDetail(\r\n                    myproduct[addr].Serial,\r\n                    msg.sender,\r\n                    addr,\r\n                    myproduct[addr].Receiver,\r\n                    myproduct[addr].ProductName,\r\n                    myproduct[addr].ProductType,\r\n                    myproduct[addr].ProductPrice,\r\n                    block.timestamp,\r\n                    \"FINISH\"\r\n                )\r\n            );\r\n\r\n            N_Products.push(\r\n                ProductDetail(\r\n                    myproduct[addr].Serial,\r\n                    msg.sender,\r\n                    addr,\r\n                    myproduct[addr].Receiver,\r\n                    myproduct[addr].ProductName,\r\n                    myproduct[addr].ProductType,\r\n                    myproduct[addr].ProductPrice,\r\n                    block.timestamp,\r\n                    \"FINISH\"\r\n                )\r\n            );\r\n        }\r\n        if (myproduct[addr].Serial == 3) {\r\n            StateTime memory _state = StateTime(block.timestamp, \"IN_TRANSIT\");\r\n            myproduct[addr].State[myproduct[addr].Serial] = _state;\r\n            myproduct[addr].State[3].TimeStamp = block.timestamp;\r\n            Delete(addr);\r\n\r\n            products.push(\r\n                ProductDetail(\r\n                    myproduct[addr].Serial,\r\n                    msg.sender,\r\n                    addr,\r\n                    myproduct[addr].Receiver,\r\n                    myproduct[addr].ProductName,\r\n                    myproduct[addr].ProductType,\r\n                    myproduct[addr].ProductPrice,\r\n                    block.timestamp,\r\n                    \"IN_TRANSIT\"\r\n                )\r\n            );\r\n\r\n            N_Products.push(\r\n                ProductDetail(\r\n                    myproduct[addr].Serial,\r\n                    msg.sender,\r\n                    addr,\r\n                    myproduct[addr].Receiver,\r\n                    myproduct[addr].ProductName,\r\n                    myproduct[addr].ProductType,\r\n                    myproduct[addr].ProductPrice,\r\n                    block.timestamp,\r\n                    \"IN_TRANSIT\"\r\n                )\r\n            );\r\n        }\r\n        if (myproduct[addr].Serial == 4) {\r\n            StateTime memory _state = StateTime(block.timestamp, \"ARRIVED\");\r\n            myproduct[addr].State[myproduct[addr].Serial] = _state;\r\n            myproduct[addr].State[4].TimeStamp = block.timestamp;\r\n            Delete(addr);\r\n\r\n            products.push(\r\n                ProductDetail(\r\n                    myproduct[addr].Serial,\r\n                    msg.sender,\r\n                    addr,\r\n                    myproduct[addr].Receiver,\r\n                    myproduct[addr].ProductName,\r\n                    myproduct[addr].ProductType,\r\n                    myproduct[addr].ProductPrice,\r\n                    block.timestamp,\r\n                    \"ARRIVED\"\r\n                )\r\n            );\r\n\r\n            N_Products.push(\r\n                ProductDetail(\r\n                    myproduct[addr].Serial,\r\n                    msg.sender,\r\n                    addr,\r\n                    myproduct[addr].Receiver,\r\n                    myproduct[addr].ProductName,\r\n                    myproduct[addr].ProductType,\r\n                    myproduct[addr].ProductPrice,\r\n                    block.timestamp,\r\n                    \"ARRIVED\"\r\n                )\r\n            );\r\n        }\r\n    }\r\n\r\n    function getAllProductAddr() external view returns (address[] memory) {\r\n        return ProductAddresses;\r\n    }\r\n\r\n    function getAllProduct() public view returns (ProductDetail[] memory) {\r\n        return products;\r\n    }\r\n\r\n    function getProductState(\r\n        address id\r\n    ) public view returns (uint, uint, uint, uint, uint) {\r\n        return (\r\n            myproduct[id].State[0].TimeStamp,\r\n            myproduct[id].State[1].TimeStamp,\r\n            myproduct[id].State[2].TimeStamp,\r\n            myproduct[id].State[3].TimeStamp,\r\n            myproduct[id].State[4].TimeStamp\r\n        );\r\n    }\r\n\r\n    function getProduct(\r\n        address id\r\n    )\r\n        public\r\n        view\r\n        returns (\r\n            uint,\r\n            address,\r\n            address,\r\n            address,\r\n            string memory,\r\n            string memory,\r\n            uint,\r\n            uint,\r\n            string memory\r\n        )\r\n    {\r\n        uint _serial = myproduct[id].Serial;\r\n        address _id = id;\r\n        return (\r\n            myproduct[id].Serial,\r\n            myproduct[id].Manufacturer,\r\n            myproduct[id].ProductID,\r\n            myproduct[_id].Receiver,\r\n            myproduct[_id].ProductName,\r\n            myproduct[_id].ProductType,\r\n            myproduct[_id].ProductPrice,\r\n            myproduct[_id].State[_serial].TimeStamp,\r\n            myproduct[_id].State[_serial].State\r\n        );\r\n    }\r\n\r\n    function Delete(address id) public {\r\n        for (uint i = 0; i < N_Products.length; i++) {\r\n            if (N_Products[i].ProductID == id) {\r\n                for (uint j = i; j < N_Products.length - 1; j++) {\r\n                    N_Products[j] = N_Products[j + 1];\r\n                }\r\n                N_Products.pop();\r\n            }\r\n        }\r\n    }\r\n\r\n    function N_Product() public view returns (ProductDetail[] memory) {\r\n        return N_Products;\r\n    }\r\n}\r\n",
  "sourcePath": "C:\\Users\\lulu\\final_supplychain\\truffle_connect_web3\\contracts\\supplychain.sol",
  "compiler": {
    "name": "solc",
    "version": "0.8.10+commit.fc410830.Emscripten.clang"
  },
  "schemaVersion": "3.4.14",
  "updatedAt": "2023-09-11T06:56:37.087Z",
  "networkType": "ethereum",
  "devdoc": {
    "kind": "dev",
    "methods": {},
    "version": 1
  },
  "userdoc": {
    "kind": "user",
    "methods": {},
    "version": 1
  }
}