{
  "contractName": "SupplyChain",
  "abi": [
    {
      "inputs": [
        {
          "internalType": "uint256",
          "name": "",
          "type": "uint256"
        }
      ],
      "name": "ProductAddresses",
      "outputs": [
        {
          "internalType": "address",
          "name": "",
          "type": "address"
        }
      ],
      "stateMutability": "view",
      "type": "function",
      "constant": true
    },
    {
      "inputs": [
        {
          "internalType": "string",
          "name": "_ProductName",
          "type": "string"
        },
        {
          "internalType": "string",
          "name": "_ProductType",
          "type": "string"
        },
        {
          "internalType": "uint256",
          "name": "_ProductPrice",
          "type": "uint256"
        }
      ],
      "name": "createProduct",
      "outputs": [],
      "stateMutability": "nonpayable",
      "type": "function"
    },
    {
      "inputs": [],
      "name": "getAllProductAddr",
      "outputs": [
        {
          "internalType": "address[]",
          "name": "",
          "type": "address[]"
        }
      ],
      "stateMutability": "view",
      "type": "function",
      "constant": true
    },
    {
      "inputs": [
        {
          "internalType": "address",
          "name": "id",
          "type": "address"
        }
      ],
      "name": "getProduct",
      "outputs": [
        {
          "internalType": "address",
          "name": "adrr",
          "type": "address"
        },
        {
          "internalType": "string",
          "name": "_ProductName",
          "type": "string"
        },
        {
          "internalType": "string",
          "name": "_ProductType",
          "type": "string"
        },
        {
          "internalType": "uint256",
          "name": "_ProductPrice",
          "type": "uint256"
        },
        {
          "internalType": "enum ProductState",
          "name": "_state",
          "type": "uint8"
        }
      ],
      "stateMutability": "view",
      "type": "function",
      "constant": true
    },
    {
      "inputs": [],
      "name": "get",
      "outputs": [
        {
          "internalType": "uint256",
          "name": "",
          "type": "uint256"
        }
      ],
      "stateMutability": "view",
      "type": "function",
      "constant": true
    }
  ],
  "bytecode": "0x6080604052600a60005534801561001557600080fd5b506110ac806100256000396000f3fe608060405234801561001057600080fd5b50600436106100575760003560e01c8063328b0efb1461005c5780636d4ce63c1461008c5780638319f760146100aa578063a1422209146100c8578063d9aba9ce146100e4575b600080fd5b6100766004803603810190610071919061072e565b610118565b604051610083919061079c565b60405180910390f35b610094610157565b6040516100a191906107c6565b60405180910390f35b6100b2610160565b6040516100bf919061089f565b60405180910390f35b6100e260048036038101906100dd9190610a07565b6101ee565b005b6100fe60048036038101906100f99190610abe565b6104a2565b60405161010f959493929190610be1565b60405180910390f35b6002818154811061012857600080fd5b906000526020600020016000915054906101000a900473ffffffffffffffffffffffffffffffffffffffff1681565b60008054905090565b606060028054806020026020016040519081016040528092919081815260200182805480156101e457602002820191906000526020600020905b8160009054906101000a900473ffffffffffffffffffffffffffffffffffffffff1673ffffffffffffffffffffffffffffffffffffffff168152602001906001019080831161019a575b5050505050905090565b600060023342604051602001610205929190610cab565b6040516020818303038152906040526040516102219190610d1e565b602060405180830381855afa15801561023e573d6000803e3d6000fd5b5050506040513d601f19601f820116820180604052508101906102619190610d6b565b60601c905080600160008373ffffffffffffffffffffffffffffffffffffffff1673ffffffffffffffffffffffffffffffffffffffff16815260200190815260200160002060000160006101000a81548173ffffffffffffffffffffffffffffffffffffffff021916908373ffffffffffffffffffffffffffffffffffffffff16021790555083600160008373ffffffffffffffffffffffffffffffffffffffff1673ffffffffffffffffffffffffffffffffffffffff16815260200190815260200160002060010190816103369190610fa4565b5082600160008373ffffffffffffffffffffffffffffffffffffffff1673ffffffffffffffffffffffffffffffffffffffff16815260200190815260200160002060020190816103869190610fa4565b5081600160008373ffffffffffffffffffffffffffffffffffffffff1673ffffffffffffffffffffffffffffffffffffffff168152602001908152602001600020600301819055506000600160008373ffffffffffffffffffffffffffffffffffffffff1673ffffffffffffffffffffffffffffffffffffffff16815260200190815260200160002060040160006101000a81548160ff0219169083600481111561043457610433610b6a565b5b02179055506002819080600181540180825580915050600190039060005260206000200160009091909190916101000a81548173ffffffffffffffffffffffffffffffffffffffff021916908373ffffffffffffffffffffffffffffffffffffffff16021790555050505050565b60006060806000806000600160008873ffffffffffffffffffffffffffffffffffffffff1673ffffffffffffffffffffffffffffffffffffffff1681526020019081526020016000206040518060a00160405290816000820160009054906101000a900473ffffffffffffffffffffffffffffffffffffffff1673ffffffffffffffffffffffffffffffffffffffff1673ffffffffffffffffffffffffffffffffffffffff16815260200160018201805461055c90610dc7565b80601f016020809104026020016040519081016040528092919081815260200182805461058890610dc7565b80156105d55780601f106105aa576101008083540402835291602001916105d5565b820191906000526020600020905b8154815290600101906020018083116105b857829003601f168201915b505050505081526020016002820180546105ee90610dc7565b80601f016020809104026020016040519081016040528092919081815260200182805461061a90610dc7565b80156106675780601f1061063c57610100808354040283529160200191610667565b820191906000526020600020905b81548152906001019060200180831161064a57829003601f168201915b50505050508152602001600382015481526020016004820160009054906101000a900460ff16600481111561069f5761069e610b6a565b5b60048111156106b1576106b0610b6a565b5b81525050905080600001518160200151826040015183606001518460800151955095509550955095505091939590929450565b6000604051905090565b600080fd5b600080fd5b6000819050919050565b61070b816106f8565b811461071657600080fd5b50565b60008135905061072881610702565b92915050565b600060208284031215610744576107436106ee565b5b600061075284828501610719565b91505092915050565b600073ffffffffffffffffffffffffffffffffffffffff82169050919050565b60006107868261075b565b9050919050565b6107968161077b565b82525050565b60006020820190506107b1600083018461078d565b92915050565b6107c0816106f8565b82525050565b60006020820190506107db60008301846107b7565b92915050565b600081519050919050565b600082825260208201905092915050565b6000819050602082019050919050565b6108168161077b565b82525050565b6000610828838361080d565b60208301905092915050565b6000602082019050919050565b600061084c826107e1565b61085681856107ec565b9350610861836107fd565b8060005b83811015610892578151610879888261081c565b975061088483610834565b925050600181019050610865565b5085935050505092915050565b600060208201905081810360008301526108b98184610841565b905092915050565b600080fd5b600080fd5b6000601f19601f8301169050919050565b7f4e487b7100000000000000000000000000000000000000000000000000000000600052604160045260246000fd5b610914826108cb565b810181811067ffffffffffffffff82111715610933576109326108dc565b5b80604052505050565b60006109466106e4565b9050610952828261090b565b919050565b600067ffffffffffffffff821115610972576109716108dc565b5b61097b826108cb565b9050602081019050919050565b82818337600083830152505050565b60006109aa6109a584610957565b61093c565b9050828152602081018484840111156109c6576109c56108c6565b5b6109d1848285610988565b509392505050565b600082601f8301126109ee576109ed6108c1565b5b81356109fe848260208601610997565b91505092915050565b600080600060608486031215610a2057610a1f6106ee565b5b600084013567ffffffffffffffff811115610a3e57610a3d6106f3565b5b610a4a868287016109d9565b935050602084013567ffffffffffffffff811115610a6b57610a6a6106f3565b5b610a77868287016109d9565b9250506040610a8886828701610719565b9150509250925092565b610a9b8161077b565b8114610aa657600080fd5b50565b600081359050610ab881610a92565b92915050565b600060208284031215610ad457610ad36106ee565b5b6000610ae284828501610aa9565b91505092915050565b600081519050919050565b600082825260208201905092915050565b60005b83811015610b25578082015181840152602081019050610b0a565b60008484015250505050565b6000610b3c82610aeb565b610b468185610af6565b9350610b56818560208601610b07565b610b5f816108cb565b840191505092915050565b7f4e487b7100000000000000000000000000000000000000000000000000000000600052602160045260246000fd5b60058110610baa57610ba9610b6a565b5b50565b6000819050610bbb82610b99565b919050565b6000610bcb82610bad565b9050919050565b610bdb81610bc0565b82525050565b600060a082019050610bf6600083018861078d565b8181036020830152610c088187610b31565b90508181036040830152610c1c8186610b31565b9050610c2b60608301856107b7565b610c386080830184610bd2565b9695505050505050565b60008160601b9050919050565b6000610c5a82610c42565b9050919050565b6000610c6c82610c4f565b9050919050565b610c84610c7f8261077b565b610c61565b82525050565b6000819050919050565b610ca5610ca0826106f8565b610c8a565b82525050565b6000610cb78285610c73565b601482019150610cc78284610c94565b6020820191508190509392505050565b600081519050919050565b600081905092915050565b6000610cf882610cd7565b610d028185610ce2565b9350610d12818560208601610b07565b80840191505092915050565b6000610d2a8284610ced565b915081905092915050565b6000819050919050565b610d4881610d35565b8114610d5357600080fd5b50565b600081519050610d6581610d3f565b92915050565b600060208284031215610d8157610d806106ee565b5b6000610d8f84828501610d56565b91505092915050565b7f4e487b7100000000000000000000000000000000000000000000000000000000600052602260045260246000fd5b60006002820490506001821680610ddf57607f821691505b602082108103610df257610df1610d98565b5b50919050565b60008190508160005260206000209050919050565b60006020601f8301049050919050565b600082821b905092915050565b600060088302610e5a7fffffffffffffffffffffffffffffffffffffffffffffffffffffffffffffffff82610e1d565b610e648683610e1d565b95508019841693508086168417925050509392505050565b6000819050919050565b6000610ea1610e9c610e97846106f8565b610e7c565b6106f8565b9050919050565b6000819050919050565b610ebb83610e86565b610ecf610ec782610ea8565b848454610e2a565b825550505050565b600090565b610ee4610ed7565b610eef818484610eb2565b505050565b5b81811015610f1357610f08600082610edc565b600181019050610ef5565b5050565b601f821115610f5857610f2981610df8565b610f3284610e0d565b81016020851015610f41578190505b610f55610f4d85610e0d565b830182610ef4565b50505b505050565b600082821c905092915050565b6000610f7b60001984600802610f5d565b1980831691505092915050565b6000610f948383610f6a565b9150826002028217905092915050565b610fad82610aeb565b67ffffffffffffffff811115610fc657610fc56108dc565b5b610fd08254610dc7565b610fdb828285610f17565b600060209050601f83116001811461100e5760008415610ffc578287015190505b6110068582610f88565b86555061106e565b601f19841661101c86610df8565b60005b828110156110445784890151825560018201915060208501945060208101905061101f565b86831015611061578489015161105d601f891682610f6a565b8355505b6001600288020188555050505b50505050505056fea2646970667358221220a84e7bf897db055f94b8ee5667fe98a6279adc6ecd6e5806c4a122f34483302964736f6c63430008110033",
  "immutableReferences": {},
  "source": "// SPDX-License-Identifier: GPL-3.0\r\n\r\npragma solidity >=0.5.0 <0.9.0;\r\n\r\nenum ProductState{\r\n    SETTING,\r\n    PROCESSING,\r\n    FINISH,\r\n    IN_TRANSIT,\r\n    ARRIVED\r\n}\r\n\r\ncontract SupplyChain{\r\n    uint test = 10;\r\n    struct Product{\r\n        address ProductID;\r\n        string ProductName;\r\n        string ProductType;\r\n        uint ProductPrice;\r\n        ProductState state;\r\n        \r\n}\r\nmapping (address => Product) myproduct;\r\naddress[] public ProductAddresses;\r\n\r\nfunction createProduct(string memory _ProductName,string memory _ProductType, uint _ProductPrice) public {\r\n    address addr = address(bytes20(sha256(abi.encodePacked(msg.sender,block.timestamp))));\r\n    myproduct[addr].ProductID = addr;\r\n    myproduct[addr].ProductName = _ProductName;\r\n    myproduct[addr].ProductType = _ProductType;\r\n    myproduct[addr].ProductPrice = _ProductPrice;\r\n    myproduct[addr].state = ProductState.SETTING;\r\n\r\n    ProductAddresses.push(addr);\r\n}\r\n\r\nfunction getAllProductAddr() external view returns (address[] memory) {\r\n    return ProductAddresses;\r\n}\r\n\r\n\r\nfunction getProduct(address id) public view returns (address adrr,string memory _ProductName,string memory _ProductType, uint _ProductPrice,ProductState _state)\r\n    {\r\n       \r\n        Product memory p = myproduct[id];\r\n        \r\n        \r\n        return (p.ProductID, p.ProductName, p.ProductType, p.ProductPrice,p.state);\r\n    }\r\nfunction get() public view returns (uint256) {\r\n        return test;\r\n}\r\n\r\n}",
  "sourcePath": "C:\\Users\\lulu\\supplychain\\blockchain_project\\contracts\\supplychain.sol",
  "compiler": {
    "name": "solc",
    "version": "0.8.17+commit.8df45f5f.Emscripten.clang"
  },
  "schemaVersion": "3.4.14",
  "updatedAt": "2023-08-01T11:22:50.448Z",
  "networkType": "ethereum",
  "devdoc": {
    "kind": "dev",
    "methods": {},
    "version": 1
  },
  "userdoc": {
    "kind": "user",
    "methods": {},
    "version": 1
  }
}